:020000040000FA
:80000000FFFF62FF3900FFFFFFFFFFFFFFFFFFFFFFFFFFFFFFFFFFFFFFFFFFFFFFFFFFFFFFFFFFFFFFFFFFFFFFFFFFFFFFFFFFFFFFFFFFFFFFFFFFFFFFFFFFFFFFFFFFFFFFFFFFFFFFFFFFFFFFFFFFFFFF800C9001324006C840110051200A4481A80255048C4011280245804C9001000000000000000000000000000000000C90013200C6
:8000800026C80419280245A00814182350044014882A0245A0089001E8FE0017E0025C800B70012A800A50012A4005B4800A50012A4005A8003FE0020000000000000000000000000000000012E0025C001DF0032E4005A80015A00554800AA002544005A80015E00298FF00000000000000000000000000000000000000000000000000BF
:80010000000000000000000000000000000000000000000000000000000000000000000000000000000000000000000000000000000098FF0000000000000000000000000000000000000000000000000000000000000000000000000000000000000000000000000000000000000000000000000000000000000000000000000000009850
:80018000FF00012800048200100000000000000000000000000000000000002021200000000000000000000000000000000000002000040010100202000000000000000000000000000000000000280018FF0E01000010000A10000000000000000000000000000000000000002C000200000000000000000040000000000000004000046E
:800200000024C8084800000000000000000000000000000000000080800BFD20000480061000024000000001209004000010220240000800002050000000000000000000000000000000000000000400001000024000000001000004800000000040000000000000000058F800000000060000000000000000000000000000000008000024
:8002800000000000000000000000000000000000000000000000000000000000000000000000000000000000000000000000000000000090F96000000000300000000000000000800C000080000008000100000001010000000000000000000000000000000000000000000000000400000000000000800100000000000000000000000049
:80030000E8F82000300800100000002301002004100400008080000023604200000900000000000000000000000000000000000000000000000018012301002C080030840000000000830000000000000058FA8009811016C28840040002008C0400B000004042401020010100800800000000000000000000000000000000000000001184
:80038000000010400820010080100000124604000000080100000000000028FCE0013C8007F00006C00300000360803C1000700006C003784000E000010000000000000000000000000000000000000C000030001EC00300000F00003C8007000000C0030000000000000078FC8001300006C2001800030000000001310000000000080316
:80040000600000004000000000000000000000000000000000000000300000C02018000300000C000030000600000000030000000000000078FB8001300907C00018059300000004043000000028080193601200001000000000000000000000000000000000000000B01000C00898049300004C0200300906000000009300000000000073
:800480000030FC00000480441400024000080001200034000010000040000800000000040000000000000000000000000000000000000480000000024000080001200004800010000040000000000000040064FA000000000000000000000000000000300000000000000000000000000000000000000000000C0000000000000006000092
:8005000000000200000000000000000000000000400000000000000000000020F900000000060040000000000000020000000000000000000100000000000000000000000000080000000000000004003010000200000800180000000000000000400000000000000000000068F90000000004C20800002301210C0084000900C048000014
:8005800023604200000000000000000000000000000000000000000000000240000000012309002C8891300406020000000000000000008010ABFE0000802046020400030861210084853020000048000010000200000030040000000000000000000000000000000000B040440200801010600440008000012080440000000000000000CE
:80060000B010A1FA00000C8007F08006C00318000F60000C0000F00000C0037A200000003C0000000000000000000000000000000000003C8001000006C0037A400FE4013CA007340000C00002000000000C0090F80000301006C00018100300000C0000300800C000000003600000000030000000000000000000000000000000000000CE
:80068000300000040018000360000C80013000060080000003000000000000001BFC0000300216C42018018300200C0280000100C020000083601000000030000000000000000000000000000000000000302210000080088360000C8241300806010200001301000000000010A0F91000048900100002402008240120000000001000006E
:80070000402008000020000000000000000000000000000000000000000004800010000240800000012000048200902400400000000100000411A0F8000000000000000000800000000000000000000000008000000000800000000000000000000000000000000000000000000000000000000000000000000800C000000000000000000A
:80078000000000D8FF00003C08003000180002004000024000000000000000020020000080000000000000000000000000000000000000000000000000000002020000000020000000800000000000000000000040FC0C00000000100000024200010C8001000000C048000022610400001000000000000000000000000000000000000003
:8008000000000010C24840081200002C8491A01006420400008300004C0100001130FD0400100816C048181001000020008000000000040000110201000004010000000000000000000000000000000000000000400004180909040080100410101082040100100000800400802060F80000288007F4001EC00119200FE801000000F0802D
:8008800000C0017840006000000000000000000000000000000000000000000C8801F28006C00100000FE0011D8007300000C00302000F00000C00A0FD0C00300806C00018100000200C8001000000C000000000600000008100000000000000000000000000000000000000302006C20000008000000C8001000006802000000300000CB6
:8009000000000010D8FA0000B00006C00018009020042C8245000000C022000090601100000000000000000000000000000000000000000000300110C02200080800002C8245000916010000008B00002C02002000D8F800000480061000024000080021200000800010000240020800292200000000000000000000000000000000000042
:800980000000048014110002402000000120040480061000004000000001200004001CF8000000000600000000000000000200000000000008088300000C00000000000000000000000000000000000000000000000600000008800000000040000006000000000000000000000000F0FE000000000002400000830010080040000000002E
:800A00004000080002200000000000000000000000000000000000000000000030000000000010020200000001312000000000000000000000000008B8FC0000300806C0080000006000088101000000C008000021600404048400000000000000000000000000000000000000000982C04800011200002C0405800000004200000304004D
:800A80004C0100B00053F800000001260442000143002004000400002600484010120002488085000000000000000000000000000000000000003002240042900809040040803030220604080000A30000408011001011FD00003CA001F00006C403780007E801018007F20006C00079200364000000000000000000000000000000000051
:800B00000000003C8801F40006C00100000FE4003C8007304000C00000000FE8813C0008F80000300006C4001808036000008001000006C000000802600008020000000000000000000000000000000000000000300004C10000100000000C0000300806C04000000300000C800130009BFA0000300A01C028580023621400825100000692
:800B8000C028000180601400008000000000000000000000000000000000000000300400C02840009000008C024030022601020000A000008C8201300A18FCB00104800090080240020800892005000000100202400048000120000000000000000000000000000000000000000004804011040240020800092000248006100000401000AA
:800C0000004100000400D4FB8001000006C02000008300000C82410000000020000000601000000000000000000000000000000000000000000000000000002000008300000C020030080600000000800000000200000048FC0000000000040018000000100000000000008000000000000000004000000000000000000000000000000076
:800C80000000000000000480800000001800000000001000002000C08300000800000008E0FA0C0030400040220004116100448810010000808040080020220080090000000000000000000000000000000000000000004484080000090C00040100100100C0040000000000280400B00053FE8401310A468200580062000188010101007D
:800D00000040420001084044001080000000000000000000000000000000000000000001C240004000026201080008A00006044000008100000404008000C1FDE0010C800730201EC4007840036000000000700006C8001A0003E001000000000000000000000000000000000000000C9003708006C40078400364400C9007F000008002A1
:800D800000000700003C2058FF8C0130080682001800026010080001000000000018080340000C82410000000000000000000000000000000000000030100001001800026000088081200006C12000008300000000003008B3FE804900024600289802806004200250000000002040008B00104C80110000000000000000000000000000EF
:800E0000000000000030001000221805806000008205000816C00800000B0000200200300200F8A001048000100402400048020120080000001000024000080401204900000000000000000000000000000000000000048000900202400068002920110480001028004000080029000004005CF880010000000020000000601000004000A9
:800E800000000000000000001000800100000000000000000000000000000000000000000000C02000080060000C8241000000000000000000000C0200000060F800800000008000000003000000000101000000400000004040000800000000000000000000000000000000000000003000000100001000002000000000800180000000B5
:800F0000000000000400000060FD880130080080240000202442000009000000C00800000040008C801001000000000000000000000000000000000000001226408440000B6100048120008000800801008300004400000000FBFB8031000146410200080B420C408008000000000480042020008004010100000000000000000000000032
:800F8000000000000000B02000828480082061120800058120164080000010600C280000000221FE60003C9007702006C003180003E200010000F08006C00039200F6000000000000000000000000000000000000000003C8007300006C00318000364000C8007720000C00379000304000C08C8FB8481300806000018008340100C00009B
:80100000000000C02018008300000C024100000000000000000000000000000000000000302006810010108360200800013000060020000083600008000030007BFC4010B00006002018082300048C0444000000C00218052300122C000000000000000000000000000000000000000000300216002800010B1004800244B008060008001E
:80108000000B6000800200B00860FA3000348000D00002400008000120000000009004024900080201200000000000000000000000000000000000000000048000100002408A0804412000048044100000400300000100002401ECFE8001000006C0000000000000000000000000C020000000001000000000000000000000000000000099
:801100000000000000000000000000000000036010000200000006010000000000000000003008F0FA0080080000000018048300000000000000000040001003404000084000000000000000000000000000000000000000300000C1000004004000088001000000002000800000000C0000002008F90C10040916020000011000000000B2
:8011800000000000400240000842008C800900000000000000000000000000000000000000000A2600241801092482480450000022C10400409000008004001001BBFA8491301026C08018048B00040000100000008008000063200040000400000000000000000000000000000000000000B00810C020001002622484814580101401025F
:8012000000004300002C04002041D9FBE001088007F1001EC0031810036240000000308006C80338200FE801010000000000000000000000000000000000003C8007F4001EC000780007E0010C8001F08000800000000F00000C00E8FD8C01340006C00018040360000C8401000000802010080300000C8241000000000000000000000052
:801280000000000000000000300806C1801804826020008001300804C02000400300000C02002008EBF88049801021C22258000B62112C804900000000020001A300110C800100000000000000000000000000000000000000300206C0041800106004208285300110C10000000804002C0000000298FF0000348004D00002400008120184
:80130000200004000090088248004801812200000000000000000000000000000000000020000480001000024000680081200004801010000040030000010000040978FA0000000000C2000000000000000000000000C020000000601000000000000000000000000000000000000000000000000000000000000060000002000000000120
:801380000000000000000000000000B0FA0000080006000018080040000C80410C00000040000000000008000000000000000000000000000000000000000000000000C000000400000008808100000401000080000000000000200030FB0000040A840000800000400880020404000040028008002022880400000000000000000000108B
:80140000000000000000000800000000001418010B0110480410000014000000408800000000002042A2FE0000300416C08098001024004C82493011008008401008444484000800000200000000000000010000000000008005000910C000810010604084815100400200040000130200400000102090FB0000088007F2001ED00038401A
:801480000FE0013C0000308006C00018000764400000040000000000001002000000000000E8810C8001F1001EC8031A0007E0010C8003312000800000000304001C00A8FE0000340006C00018000300000C80013000008000000883400000820100800400000000000050020000000000008801300006C020180483601000804130080059
:80150000C00000400300000C02000000A9F80000804026C12498088B00144C8101320000002208000B001420804500000400000000000000020000000000008001B00806C1029800130004408211B00000C12000000801008C0000000A28FF100000220000000000000000000000000000000000000000000000000000040000000000006A
:801580000002000000000000000000000000000000000000000000000000000000002002000000000000ACFF20000480001000024000080001200004800010000240000800012000040000000000000000000000000000000020000480001000024000080001200004800010000240000800012000040098FF000000000000000000000041
:801600000000000000000000000000000000000000000000000000000000000000000000000000000000000000000000000000000000000000000000000000000000000098FF2C0000800010000240000800012000048000100002400008000120000400000000000000000000000000000000200004800010000240000800012000048006
:8016800000100002000008000120000400E3F8040000420000000000000000000000000000000000000000000000000000000000000000000000000000000000000000000000000000000000000000000000000000002004000000000000C9FA000000800000000240000800012000008000100002400008000120000400000000000000B9
:8017000000000000000000000020000480001000024000000001200004000010000200000800012000040078FA0C000120000080000000000000000000200000000000000000000000000000000000000000000000000000000000000000000000000000004000000000000004000000000200000000000013FA200804810010040240007A
:80178000080001200004810010000240000800012000040000000000000000000000000000000020000480001000024000080201200004802010000240100800012000040070F800000000000000000000000000000000000000000000000000000000000000000000000000000000000000000000000004000000000000040000000008F0
:801800002000000000000000000200000000F0FF00000000000000000000000000000000000000000000000000000000000000000000000000000000000000000000000000000000000000000000000000000000000000000000000000000098FF000000000000000040000000000000000000000000000000000000000000000000000080
:801880000000000000000000000000000080000100000000000000202000000000000000000000000000000028FB080000000200000000000000000000200000000000000000000000000000000000000000000000000000000000000000000000000000000000000000000000000000000000000000000000B0FD0000000000000000002D
:8019000000000000000000000000000000000000000000000000000000000000000000000000000000000000000000000000000000000000000000000000000000040000000098FB002000000000000000000000000000000000000000000000000000000000000000000000000000000000000000000000000000000000000000000000B0
:80198000000000000000000000000000000000B8FD40000000020020000000000000000000080000000000000000000080000000000000000000000000000000000000000000001010021000084000000000000001000000000000000000000078FA0040000000000000040000000000000000000020004400000000004000200000000053
:801A0000000000000000000000000000000000004020000001000000000000000040000000000000000000000088FA400011000300400010000000000000001500008000500000000000800120000000000000000000000000000000000000000030C0844A00102000000000000013000000000000000000000018F8000000001000880070
:801A800000020000000040002402410018004000000C80000008000000000000000000000000000000000000000000223010000010000000308000400000040000000080010000A0FA000000000000000000000000000000010002840002000000000840000008000000000000000000000000000000000000000000800000000010000067
:801B000000200000800000100000000080000000F8FF0A0000000000000000010000000000002000000004000002000400000000000000000000000000000000000000000000000000000800000000000000100000000000000000000000010080A4FF000000000000000000000000000000000000000000000000000000000000000000CD
:801B8000000000000000000000000000000000000000020000000020000000000000000000000000000000000000B8FF00000000000000000000000000000001000000000000000000000000000000000000000000000000000000000000000800000000000000000010000000000000000000000000000000000018FE00000000000000DD
:801C00000000000000000000000000000000000200001800000000000000000000000000000000000000000000000000000000000000000000000000000200000008000000028000A8FC1000000000000000000400000000000000000000000040000000000004000000000000000000000000000000000000000000004000000000000082
:801C800000000000000000000000000000000000008CFF00000800000000000000000000000000000000000000000000000000000000000000000000000000000000000000000000000000000000000000000000000000000000000000000000000018FF00000000000000000000000000000000000000000000000000000000000000003A
:801D00000000000000000000000000000000000000000000000000000000000000000000000000000000000000000098FF040000400000002000000000000000000000000000000000000000000000000000000000000000000000000000000000000000000000000000000000000000000000000000000000000000A9F8000000000000C7
:801D800000000000000000000000000000000000000000000000000000000000000000000000000000000000000000000000000000000000000000000000000000000000000000000098FF00000004000000000000000000000000000040000000000000000000000000000000000000000000000000000000000000000000000000000008
:801E000000000000000000000000000000000000000098FB000000000020020000000000000000100000000000000000000000000000000000000000000000000000000000000000000000000000000000000000000014000000000000000000000000E8FE0000000000000000000000000400040000000000000000000000000400000097
:801E8000000000000000000000000000000000000000000000000000000000000000000000000000000000000000008050FF00000000000000000000000000000000000000000000008000000000000000000000000000000000000000000000000000000000000000000000000000000000000000000000000000000010FF000000000084
:801F00000000000000000000000000000000000000000000000000000000000000000000000000000000000000000000000000000000000000800000000000000000000000000000000081FE0200000000000000000000000000000000000000000080000000000000000000000000000000000000000000000000000000000000000000E0
:801F8000000000002000000000000000000008000000005CF900000000020000000000000000000000000000000000000000000000000000000000000000000000000000000000000000000000000000000000000000000000000000000000000000000098FD000000000000000000000020000400000000000000000000000000000000A9
:80200000000000000000000000000000000000000000000000000000000010000000000000000000004200000000000000D8FE00002000000000000000080001000000000000000000004000000000000000000000000000000000000000000000000000000000100000000008000000000000000000020000000000000018FB8000000022
:802080001000000000006000088001000000200018800000000280010000000000000000000000000000000000000000000600001880002000000000080000C0000000000000030000300008FF0000100000400000000180081000220000000060200280000000022200000000000000000000000000000000000000000088400028028049
:80210000004000000000080200110000010000000200400448FA400010000D0000000000900001400200000000002400000010004002000000000000000000000000000000000000000000090000200200100000080000000020010000000000000000488038FC0000000000000000008000000000000000000000000004040000000000ED
:802180000000000000000000000000000000000000000040000080000000000000000010000000000000000000000000000088FB000000000001004042000000000000000000000000000000000000000000000000000000000000000000000000000020000010000000000000000000000000000000000000000000000000E8FC000000F5
:802200000000000000000220000080000000008000080000000000800000000000000000000000000000000000000000000002000000000000000100000000004000000000000000000010001CF900000000000000000000001002024000000000000000000020000040000000000000000000000000000000000000000000000100040093
:8022800000000000004000000000200000000000000000000868F8000000000000200400002000008000000001010000100100100200001000000000000000000000000000000000000010000001000000000010040240000002008000000000000400000000F8FC2000000080000000000000000400002000004000028000200002420052
:802300000000000000000000000000000000000000000000000200400000810000008000000000000000000000000000001000FAFF20280000004440040000100001400004000112000AC800082003280008000000000000000000000000000000000000088000028000400002200224800000A100400004000000020000040040FA000075
:8023800001080DAA2010006360100C826120002E40001806036010080121A0000000000000000000000000000000000001300012400004022112400482040000828010800000A010008002000458FE0000002000002000000120100482400080002000021001201000000000000000000000000000000000000000000000100002800000F2
:802400004000000004820000000200000000002010008000000090FF000000000120000480801000024020100002000008840010000241400800000000000000000000000000000000800008000000000004000000000000000000412000000000000000000008F8FD10000000000000020000000000000000000000000000000000000089
:802480000000000000000000000000000000000000000000000000000000000000000000000000000000000000040000000000008CF9000080200000002000000000000000000000000000000000000000000000000000000000000000000000000000000000040000000000000000008000000000000000000802000000000000F0F920FC
:802500000000000000004404000000080000000000000000000000000008000000000000000000000000000000000000000084000000000000000000000000000400000000000000000000000000F8FB00002000000000000080000000000000000000000000010000000000000000000000000000000000000000000000001000000000D7
:80258000000000000000000000000000000100000000000000004008F900000000000000000000000000000000000000000000000000000000000000000000000000000000000000000000000000008000000002000000000104000000000000000000000000000060F90000000000000000000000000000000000000000000000000000B9
:802600000000000000000000000000000000000000000000000000000000000000000000020180000000000000000000000000000008FD080480000000020800001000024000800000000000000000000040000000000000000000000000000000000000000000000100000000000001004000000010200000000800000800000800B8FEEA
:80268000000004000000000000000000000000000000000000000000010000000000000000000000000000000000000000000000000000000000000000000000000000000000000001000000000000D8FE0000008008000000004000000000400000040000000000000000004000000000000000000000000000000000000000200800008A
:8027000000000008000000000000000800000000000000000000000050F9000000000040000200000400000000000000400000000020000001000000000000000000000000000000000000000000000000000000020000080000000000000000400000000000000000A0FD0000000800002000000800000000000000000000004000000002
:802780000000000000000000000000000000000000000000000000000000204000000000000000000000010000008000000000000000A2F8020000008000000000000000000000000000000000000000000000000000000000000000000000000000000000000100000000100000000000000000000000000000000400000000000000A027
:80280000F8000000000000001A0000000000000000000000000000000000000000000000000000000000000000000000000000000000001000020000080000200000800000000200000000002000000080FF0000000000000018000000000000000000000000000000000000000000000000000000000000000000000000000000000000D3
:802880000000000000000000000000000002000008000000000000000028FC000000000000000010000000000000000000000000000000000000000000000000000000000000000000000000000000000030000000000000000000008005000016000000000000000000A0FC0000000000000098000000000000000000000000000000009B
:80290000000000000000000000000000000000000000000000000000000010004008000021008085000002000008000000000000000000A8F90000000000000058100000000000000000000000000000000000000000000000000000000000000000000000000000000000C0020001000004000004000005000014000000000080910000D1
:80298000E0FD0000000000000006000000000000000000000000000000000000000000000000000000000000000000000000000000000000F040060800182000E0010100040000100000000000E0010000F8FA000000000000001800000000000000000000000000000000000000000000000000000000000000000000000000000000009D
:802A000000C000180800602000800100000500001400000000008001000060FF0000000000000004210000000000000000000000000000000000000000000000000000000000000000000000000000000000C0000000000001008049000002000008000000000080010000B0F8000000000000000221000000000000000000000000000077
:802A8000000000000004000000000000000000000000000000000000000000100002000008000020000480000000020000000000000000000CFA000000000000001800000000000000000000000000000000000000000000000000000000000C000000000000000600000000000000000000000000000000000200000800000000000000D8
:802B000000C0FE00000000000000100000000000000000000000000000000000000000000000000000000000080000000000000004000000003000000400000000000000800500001400000000000000000018F800000000000000080200000000000000000000000000000000000000000000000000000000000000000000000000000094
:802B8000000010001800000000008085B0100200000A0000000000000000006BFD00000000000000181000000000000000000000000000000000000000B0000000000000000000000000000000000000000000C002400000000000008000410500001400000000000000000019FB000000000000001E00000000000000000000000000008E
:802C00000000000000003C100000000000000000000000000000000000000000F0801E1000181000E0013C0004000010000000000000000000F0FC0000000000000018000000000000000000000000000000000000000030000000000000000000000000000000000000000000C000180000600000800130000500001400000000000000DB
:802C800000004BFC0000000000000018210000000000000000000000000000000000000030000000000000000000000000000000000000000000C000180400600A008041300802000008000000000000000000B0F8100000000000001210000000000000000000000000000000000000000000000000000000000000000000000000000001
:802D00000000001000020000080001200004800000000200000000000000000048F900000000000000080000000000000000000000000000000000000000000000000000000000000000000000000000000000000000000000000000804000000002000008000000000000000030F900000000000000100000000000000000000000000046
:802D8000000000000000000000000000000000000000000000000000000000000030000004000000006001008005000014000000000000000000A0FA0C0000000000001821000000000000000000000000000000000000000000000000000000000000000000000000000000000010001800006010000040B0100200000A00000000000022
:802E000000000080FA0400000000000090000000000000000000000000000000000000000000000000000000000000000000000000000000000000C08080200000020C815080000500001400000000000000000030FD000000000000001E100000000000000000000000000000000000000000000000000000000000000000000000000091
:802E800000000000F0001E000078200F40003C2004000010000000000000000000C8F80C00000000000018000000000000000000000000000000000000000000000000000000000000000000000000000000000000C00018000060000C004030000500001400000000000000000050F8000000000000001C10000000000000000000000048
:802F0000000000000000000000000000000000000000000000000000000000000000C00058040060110C0005B00802000008000000000000000000E0F90000000000000092200000000000000000000000000000000000000000000000000000000000000000000000000000000000D000020000080000A000048000000002000000000066
:802F800000000000C0FF0000000000000000000000000000000000000000000000000000000000000000000000000000000000000000000000000000C0000000000000008080000000020000080000000000000000B8F90000000000000018000000000000000000000000000000000000000000000000000000000000000000000000007F
:8030000000000000000000000400000000E00100800500001400000000000000000020F90C0000000000001009000000000000000000000000000000000000000000000000000000000000000000000000000000000000201800006010000000B0100200000A000000000000000000A8FD040000000000001810000000000000000000004F
:8030800000000000000000000000000000000000000000000000000000000000000000C004002000004000400180100500001400000000000000000058F9000000000000001E00000000000000000000000000000000000000000000000000000000000000000000000000000000000030401E000078000000013C000400001000000000FC
:80310000000000000008FE0C00000000000018080000000000000000000000000000000000000000000000000000000000000000000000000000000000C0001800006000004001300005000014000000000000000000C8FC00000000000000580000000000000000000000000000000000000000000000000000000000000000000000003F
:8031800000000000000000241805006014008000300A02000008000000000000000000D8FA1000000000000012100000000000000000000000000000000000000000000000000000000000000000000000000000000000D0000200006800012000048000000012000000000000000000E4FE00000000000000080000000000000000000077
:803200000000000000000000000000000000000000000000000000000000000000000000C0000000006000000080000000020008080000000000000000D8FF0000000000000010000000000000000000000000000000000000000000000000000000000000000000000000000000000000002000040078000060010080050000140000001F
:8032800000000000000078FE0C0000000000009802000000000000000000000000000000000000000000000000000000000000000000000000000000000000041800006000008000B0100200000A000000000000000000C3FB0400000000000098100000000000000000000000000000000000000000000000000000000000000000000080
:8033000000000000000000C00400080060000C440100200500001400000000000000000059FB180000000000001E00000000000000000000000000000000000000000000000000000000000000000000000000000000000030401E000070000F00013C0004000014000000000000000000A0F90800000000000018000000000000000000F2
:80338000000000000000000000000000000000000000000000000000000000000000000000C00018040060000C4001300805000014000000000000000000BBFF000000000000000C210000000000000000000000000000000000000000000000000000000000000000000000000000000000002218010060000C80003002020000100000A1
:8034000000000000000000B8FB10000000000000020000000000000000000000004200000000000000000000000000000000000000000000000020000000000000820000080100200004820000000203000000000000000060FC0000000000000000000000000000000000000000000800000000000000000000000000000000000000008B
:80348000000000000000000000000804002010000080100800020008000000000000000000C8FE000000000000000000000000000000000000000000080000000000000000000000000000000000000000000000000000000000001604005000004001288005000014100000000000000000E0F80C00000000000018210000000000000087
:80350000000000008000000000000000000000000000000000000000000000000080850000000000000100081400A0008408020000820000000000000000004AF8040000000000001810000000000000000000000000100000000000000000000000000000000000000000000000000400000000000801002084004001902005000048008C
:80358000000000000000000010FF180000000000001E00000000000000000000000006000000000000000000000000000000000000000000000000E00101000000000410001000000001080004000004040000000000000000C0F908000000000000180000000000000000000000001000000000000000000000000000000000000000007C
:803600000000000080410000000000000800000000400100000500000000000000000000000059FF000000000000005808000000000000000000000000080000000000000000000000000000000000000000000000800500000000001001004841008000201002000010040000000000000000C8FA1000040000000002400300000000007B
:8036800000000000000208000000000000000000000000000000000000000000000020440000000000020000080000200004810000004204000000000000000074FB000000000000001800030000000000000000000000000000000000000000000000000000000000000000000000800000000000000000000000000080100800020000C3
:8037000000000000000000000080FF0000000000000000C803000000000000000000000000000000000000000000000000000000000000000000000060410000000000000000000000400128880500000604000000000000000008FD0C0000000000009800030000000000000000000040080000000000000000000000000000000000006A
:80378000000000000000080000000000000000008200A000040202000080000000000000000000ABFA0400B0000000001800030000000000000000000000100000000000000000000000000000000000000000000000800000000000000000000010004001100005000080200000000000000000C1FE18003C100000001E84030000000045
:8038000000000000000006000000000000000000000000000000000000000000000000400001000000000604001800000001081004000004000000000000000000D0FE08003000000000180003000000000000000000000000000000000000000000000000000000000000000000000000000000000000180000000000400100000500003F
:803880000000000000000000000093F8000030000000000408030000000000000000000008080000000000000000000000000000000000000000000000002900000000009810006008008000200402000090100000000000000000E8FB00000000000000124100000000200000000000000210000000000000000000000000000000000007
:8039000000000000000020000000001000020100080000200084880000004210000000000000000060FB000000000000000008000000000000000000000000000000000000000000000000000000000000000000000000000000000000000804000000000080000000020008000000000000000000F8FD0000000000000018000000000088
:8039800000000000000000000800000000000000000000000000000000000000000000000000000000300016000010000060010C8805000014000000000000000000A0F800000000000000500400000000000000000000008000000000000000000000000000000000100000000000000088850000001000400400080000800000000200F4
:803A0000004208000000000000000018FF0000000000000018081300000080310000000000000100000000000000000200000000000000010000000000000090000000C0844808006011004001004205000088040000000000000000F8F9000000000000001EC003020000E00100000000000608000000000000000004000000000000107D
:803A800002000000000000E801000000F0000400007000000001080004000004000000000000000000D0FB0000000000000018040300000080010000000000100000000000000000800400000000000050020000000000008841000000C0000010006000004001000005000000000000000000000000F0FF000000000000001801030000CB
:803B00000080010000000000400800000000000000000400000000000000020000000000008009000000C000100100680000800020410200001005000000000000000020FE10000000000000000000000000000000000000000000000000000000000004000000000000000200000000000000000000000000000000000000000000000088
:803B8000000000000000000000000000ACFF20000480001000024000080001200004800010000240000800012000040000000000000000000000000000000020000480001000024000000001200004800010000240000800012000040010FF00000000000000000000000000000000000000000000000000000000000000000000000000CF
:803C0000000000000000000000000000000000000000004000000000000000000000000000000000000098FB2C0004800010000240000800012000048000100002400008000120000400000000000000000000000000000000200004800010000240000800012000048000100002400008000120000400E3F8040000000000000000200220
:803C800000000000000000000000000000000000000000000000000000000000000000000000008800000000000011000022000088001120020080080000000000000000E1FB3800048000100002400008000120000480001000024000080001200004000000000000000000000000000000000000048000000000400000000100000000EB
:803D00000010000040000800012000040060FA080000000000000000000000000000000000000000000000000000000000000000000000000000000000000000000001000000000000000010000000012000040000100000000000000000D3FA200004800010000240200A000120000480001000024000080001200004000000000000000D
:803D800000000000000000000020000480001048024900080001200004800010000240000800012000040060FD000000000000000002000000000000000000000000000000000000000000000000000000000000000000000000000000000000000000000000000000000000000000000000000000000000B8FF000000000000000000003A
:803E0000000000000000000000000000000000000000000000000000000000000000000000000000000000000000000000000000000000000000000000000000000000000098FF00000000000000000000000000000000000000000000000000000000000000000000000000000000000000000000000000000002080000000000000000A1
:803E8000000000000002000000000000000010FF08000000000000000000000000000000000000000000000000000000000000000000000000000000000000000000000000000000000000000000000000000000000000000000000000000090FF020000000000000000000000000000000000000000000000000000000000000000000018
:803F000000000000000000000000000000000000000000000000000000000000000040000000000000000000B8F900000000000000000000000000000000000000000000000000000000000000000000000000000000000000000000000000000000000000000000000000000000000000000000000000000098FF040000000000000000B5
:803F800000000000000000000000000000000000000000000000000000000000000000000000000000000000000000000000000000000000000201000080000000000040000028FA00000000000000000000000000000000000000000000000000000000000000000000000000000000000000000000000000004000000000000004000098
:80400000000000000000000000000000000000D8FF00000000000000000000C00080010060000000000000000000000000000000000000000000000000000000000000000000005014000000000001000000000102000080000000000080000040F80000000000000000000000000000000000000000080400001000000000080000000004
:8040800000000000000000000000000000000000A0400100004000048000000A0201000004872000008000000034FE020000000000000000000000000000000000000004100000400000000008000000000000000000000000000000000000000000000000000000088000000802010000080142000020000000B8FB0A0000000000000098
:8041000000000000000000000000000000000000000000000000000000000000000000000000000000000000000040000000004000000000000000000000800000000000000080BCF900000000000000000000000000000000000000000000000000000000000000000000000000000000000000000000000000000000000000000000000A
:804180000000000000000000000000000000000098FF00000000000000000000000000000000000000000000000000000000000000000000000000000000000000000000000000000000000000000000000000000000000000000000000000000098FF00000000000000000000000000000000000000000000000000000000000000000091
:8042000000000000000000000000000000000000000000000000000000000000000000000000000000000000000098FF100000000000000200000000000000000000000000000000000000000000000000000000000000000000000000008000000000200000000000000000000000000000000000000000000000E4F90000000000000018
:80428000000000000000000000000000000000000000000000000000000000000000000000000000000000000000000000000000000000000000000000000000000000000000000098FF0000000000000000000000000000000000000000000000000000000000000000000000000000000000000000000000000000000000000000000027
:80430000000000000000000000000000000000000098FF00000000000000000000000000000000000000000000000000000000000000000000000000000000000000000000000000000000000000000000000000000000000000000000000000000098FF1A00000000000000000000000000000000000000000000000000000000000000F5
:804380000000000000000000000000000000000000008000000000000000000000000000000000000000000000000028FD00000000000000000400000000000000000000000000000000000000000000000000000000000000000000000000000000000000000000000000000040040000000000000000000000000098FB0000200000001D
:80440000001000000000000000000000000000000000000000000000000000000000000000000000000000000000000000100000000000000000002000000010000000000000000000B8FF0000000000000008000000000000000000000000000000000000000000000000000000000000000000000000000000000000000000000000002D
:8044800000000000000000000000000000000000008098FF00000000000000000000000000000000000000000000000000000000000000000000000000000000000000000000000000000000000000000000000000000000000000000000000000000098FF000000000000000000000000000000000000000000000000000000000000000E
:80450000000000000000000000000000000000000000000000000000000000000000000000000000000000000000000098FF00000000000000000000000000000000000000000000000000000000000000000000000000000000000000000000000000000000000000000000000000000000000000000000000000000098FF00000000000D
:8045800000000000000000000000000000000000000000000000000000000000000000000000000000000000000000000000000000000000000000040000000000000000000000000000D8FB0000000000000000020000000000000000000000000000000000000000000000000000000000000000000000000000000000000000020000E0
:804600001000000000000000000000000000000000000098FE000000000000000200000000000000000000000000000000000000000000000000000000000000000000000000000000000000000000000000020000000000000000000000000000000000B8FF000000000000000010000000000000000000000000000000000000000000C9
:80468000000000000000000000000000000000C00000000000005020006000018000100002000008000000000000000000C0FE00000000000000000000000000000000000000000000000000000000000000000000000000000000000000000000000000000000200000C040000000100000000000000000000000000000E0FD00000000C4
:804700000000000000000000000000000000000000000000000000000000000000000000000000000000000000000000000000000008000000000000000800000000000000000000000000B2FD000000000000002000000000000000000000000020000000000000000000000000000000000000000000000000000000000000000000003A
:80478000080000000000000000000000000000000000000030FF000000000000000000080000000000000000000000000000000000000000000000000000000000000000000000000500000000000800000041000005A00010000040000000000000000000F8FB000000000000000000000000000000000000000000000000000000000044
:8048000000000000000000000000000000000000000000000000000010002000000000000000000000000000000000000000B8FC180000000000000000000000000000000000000000000000000000000000000000000000000000000000000000000000000000000400000000000040004000000000000000000000000000C0FB000001FC
:8048800000000000080001000000000000800020000000000100000000000000000000000000000000000000000000000000800040000000004000004000000241000000000000000000000010FF08000000802000000000100000000020000080000000000000000000000000000000000000000000000000000080000000000020000084
:8049000000000000000000000000000008000000000000008008FC008010000014000480000800000000040001300000000001000000000000000000000000000000000000000000200000000002D45000000020400180000001220000100000000000000000A8FF00002000040000320002000008402100000080001810E3200004800054
:8049800020000000000000000000000000000000000000000000A000080400600012820020000201020000A00000000000000020F900000000000000000000000000000000000000000280001200024000000000000000000000000000000000000000000000000000080400080000880000000401000000800000000000000080F90000A9
:804A000020000100000480000000024020000000100008408000000000000800000000000000000000000000000000000000000080000000004000000000100000000000000000000000000000F8F800000000000000000000000000000000000000000000000000000000000000000000000000000000000000000000000000000000008F
:804A800000000000000000002000000000000000000000000000B8FD000000000000000000000000000000000000000000000000000000000000000000000000000000000000000000004000000000000004000800000002000008000020000000000000000000B0F90800000000000054080000000000000000000000440000000000001A
:804B000000000000000000000000000000000000000000000000000000000000000000000000000000000000000000000000000022F8000000000000000020000000000000000000000010000000000000000000000000000000000000000000000000000000000000000000000000000000400000000000080000000000000000D0FC00D7
:804B8000000000000000000000000000000000000000000000000000000000000000000000000000000000000000000000000000000000000000000000000000000000000000000000000000000098FF020000000000000000000000000000000000000000000000000000000000000000000000000000000000000000000000000000001C
:804C00000000000000000000000000000000000000000000000000B8FD000000000000000000000000000000000000000000000000000000000000000000000000000000000000000000000000000000000400000000004000000000000002000000000000000000F8FF000000000000000000000000000000000000000000000000000042
:804C80000000000000000000000000000000000000000000000000000000000000000000000000000000000000000000000000008010FF00000000000000000080000000200000000000000000000000000000000000000000000000000000000000000000000000008000100800000000000000000000000000000000000000000020FCD1
:804D0000000000000000000000000000000000000000000000000000000000002000000000000000000000000000000000200000000000000000000000000000000000000000200000000040000000B8F9000000000000000000000000000000000000000000000000000000000000000000000000000000000000000000000000000000E2
:804D800000000000000100000080000000000000000000000000000008FF00000000000000000000000000000000000000000000000000000000000000000000000000000000000000000000000000000000000000000000000000000000000000000000000000000098FFA0010080100000004000080009000000000000000240080000C8
:804E000000200004000000000000000000000000000000000000048000C010000000000000000000001600400005006800000000340048F98001000000020000000300000408000000000000000000010000000000000000000000000000000000000000000000000006C00000000000000000000000060400000000600000000030004847
:804E8000FAE00100000000000000000100080800000000000000000000000060000C0000000000000000000000000000000000000C0006F2000000000000000000000007200004000018000000000C0000F9A001000022020000001300008C0000000000000000001101000020000400000000000000000000000000000000000000004034
:804F0000D0000000000000000000008006100002000008000000000400C0FA0000000010000000001361128C0200000000000018090801000080093110000000000000000000000000000000000030084008000000000000000000000010C1021804000000000000000058FF4040008003040000C00378000F000000000000001EC00100F5
:804F80000000E0013C00000000000000000000000000000000000038800620200000000000000000000001E0401C000000100000000008A0FD0000000004020000000360000C0000000000000018000202000080013000000000000000000000000000000000000030000600000000000000000000000000C00018000060000000003000C4
:80500000D8FA000000004200000080106200260400000000000018000100000080013000000000000000000000000000000000000030000000000000000000000000000000D0001800006000000000300028FA000000800600000040020800010000000000000000400068000000000000000000000000000200000000000000010034803C
:80508000C00000000000000000202100800010001805000800008091040088FD00000000060000000000020000000000000000000000006000000000000000000000000000000000000000000000003000040000000000000000000100000000001800000000008001000090FA000000000000000000030000000000000000000000C000DD
:805100000000000000000000000000000000000000000000000000000000020000000000000000E00100000120001E0000000000E001000058FE0000000000000000008A60222C040000000000000040000000000000000000000000000000000000000000000000000000060400000000000000000000800010001A0000600800A001306D
:805180001213FA0000000006000000000301220C000000000000000000636040000000000000000000000000000000000000000000000001000000000000000000C000000006C0000001000000000010000009FB0000008007010000C00378000F0800000000000000C00378000000000000000000000000000000000000000000000004A0
:80520000A00000000000000000008000000007E1200404006800004040340040F90000000006040000008360400C0800000000000000000360100000000000000000000000000000000000000000000030000000000000000000004001000006C000000000000000000000001BFD0000000027000000000360044C000000000000000000CC
:805280000360020000000000000000000000000000000000000000000030000000000000000000008000008006C0000000000000000000000020FF100000801400000040024A400100000000000000004000000000000034000000000000000000000000000000000000348010000000000000000020200080001000020000080000200091
:805300000400D8FC0000000000020000000120000C0000000000000000000000000000003000000000000000000000000000000000000000000404000000000000000000000000000000000000000000000000B0FF000000000600000000024020000000000000000000C00000000000000000000000000000000000000000000000000017
:805380000000020400000000000000600100000120000400000020006000001058FE0C00000004040000000B61004C080000000000000040000000000000000000000000000000000000000000000000003005060000000000000000800000800010000200006004000000300018FE0400000006040000000A62040C0100000000000000A5
:8054000000230400000000302000000000000000000000000000000000003000000000000000000000C000000046C00818000000000080010200F0FF1800008007000000C0037810030000000000000000C00300000000003C00000000000000000000000000000000110004800000000000000000008000000007E1201C0400680000C0DC
:80548000013400C8FD0800000006000000000360000C0000000000000000000300000000003000000000000000000A00000000000000000000000000000000000000004001000006C00018000000000080010000D8FE0000000046040000800B34212E040000000000000000030000000000300900000000000000040000000000000001E5
:805500000030000000000000000000008000008006C0001A00000000008001000068FF1000008006000000400A080029000000000000000040030000002000000000000000000000080000000000000010803480100200000000600000202000001000400200000800000000040010FA00000000060000000000010000040000000000004E
:805580000000030000000000000000000000000000040000000000000002000000040000000000602000000000000004000000000000000000000098FD0000000000040000000300000C00000000000000000000000000600000000000000000000008000000000000004400000002040000000078000060010000012000040000000000C2
:805600000000000090F90C0000002600000000426021080100000000000000000000000020000000000000000000000C000000000000002000B010260000000000680000800000800010000200006020000000B0101AF90400000086000000000362400C0000000000000000000300000080010000000000000000000000000000000000E5
:8056800089453000000000000000000200C000000006C24458000000000000000000A0F81800008001000000C00378000F0800000000000000C083000000E0810000000000000000000C00000000000000C10104800000000000001010008000000007E0001C04006800000000340040FD0800000006000000000360000C00000000000010
:805700000000000302000080010000000000000000000000000000000000880100000000000000000000004001000006C00018000000000000000000D9FF0000000011020000005360848C0400000000000000801300000080010000000000000000000200000000000000820130000000000000000000008000000006D0001A0000000010
:80578000000000000018FA100000800010000240000800010000000000000000400000000000000000000000000000000800000000000000300034804000400000000000012020008000100018050008000000000400D0FF0000000006000000000060000C00000000000000000000000000000000000000000000000004000000000000C1
:805800000000000000040200000000000000000000000000001800000000000000000010FA00000000000000060000004000040000000000000000000000000000000000000000000000040000000000000042000000022200000000000003600100000130001E00000000000000000058FB0C00000010020002000060014C000000000079
:80588000000000000B0100000000000002000000000000000100000000000020003012061000000000000000800000800000001A000060210000003004F3FB0400000006C44458000360208C04000000000000000003020000000000000000000000000010000000000000008809300000C00000000000000CC400000026C02880040000EF
:8059000000000000000039FA1800008007F0001EC88378000F0000000000000000C00300000000000000020000000000000801000000000000C641048000E02000000000000E8000000007E10004000068000000003400C8FD0800000006C00018000360000C00000000000000000003020000000000800000000000000040000000000027
:8059800000008001000000C00000000000000C4001000006C00000000000000000000000A6F90000000006C2001800031020020400000000000000002300000000000000020000000000001401000000000000A501300000C00000000000000C8000008006C0000200000000000000000018FB100000800010000040084804892000000007
:805A000000D000004003000000A00100800000000000000040000000000000008085348020140000000000000020200000C6100002000008000000000400A0FC000000000600000000000120000400000000C00000000300000080010000000000000000000200000000000000840100000400000000000000000000000006000000000005
:805A80000000000000000060FF0000000000020000000060100C0000000000002000000000000000000000010000000000009000000000000000E0010000022000000000000000600100800720000600006040000000000050FF0C00000026C084000011410028020000000000000000880000000000000004000000000000120200000086
:805B0000000000A6013042461800000000000000800000800610000000000002000000302020F80400000026004800000064410C8405010000C08000000B040000800101800000000000000040000000000000000044300000C024000000000000C000000010C10498000060000000000000A8FB1800008007F10000C00178000FE00100AF
:805B80000000300000C000000000E00100000100000000000022000000000000004800048000E0000000000000008000000001E0201C04000800000000340048FC0800000006C00000000261000C8001000000C020000003000000804100000800000000000000010000000000000100000000C0000000000000004001000000C00018009F
:805C00000000000000000000A0FC0000000021C44400000960114C8201000000000400008000000080010080000000000000004A000000000000000000300000D0000000000000008000000000C0001A00000000000000000038F8300802800490801A400308000120010100001000004003000000200000000200000000000000010000F1
:805C8000000000003000348006100000400060420C202004800010001A00030A004C00000400B0FB0000000000440018000360000080000000000000000003000000000000000000000000000000020000000000000100000002020000000060000C0800000000000018000300000C0800000020FB000000000684000000000040000001F4
:805D00000000003000000000020000600000800400000000000050000000000000004400000006200000C00078000F60010C8001200018C00300400F0000302078F88C48000044C08880020060024C84850000001000000013000000200000000300000000000090010000000000002000B020A2100000000068000D8000000000100018E5
:805D8000400360010D0000000033FD0430000006C22218108B6080200005010000C000000023000000803100000000000000000000000000000000009149300000C022000013021480C200302216C0220002A00000800200300059F8F800008007F00006C00318000FE801000000F04000C080000000E00100000000000000000000000078
:805E00000000000000C001048001E0000080031000028000380007E10006800068000200000400F0FA0801000006C00018040362000C8001000000C0000000030000008001008001000000000000CA000000000000008501000000C0000000030000004001300006C000000000000000000000000EFA8028000006614200811370210CC8AB
:805E800021000000C00000800801000080010000000000000000000000000000000000A001300000D0000000030000008000308006C0000000000000000000000048FE1000048000100000400048010120050080001000004008080000A0010000000000000000000000000000000000200034A20610001A000300000020213091001000C8
:805F000098400028040100001442C0FF000000000000000000000020000080000000000000008300000080010000000000000000000000000000000000090000000600001800030100008000300000000018080000400000000000C0FA0000000000000000000060000080010000003000000002180000000000000000000000000006003D
:805F80000000000000006000388807300018C00300000060013C800130001EC0002000030000100008FE0C00000000C04200000B414200001101002612000000010A00000048000000000000000000100000000000000008000401060000184003000000800034000000001A0000000A000000000598F90400302016C18000000362404C49
:806000008201010020C202000003620000800101000400000000000010020000000000008851100000C028800880000000C000000826C10200040B01000C01003000F8F918003C8007F00000C00378000FE001008007F04000C00378400060000000010000000000009400000000000000CA01280001E100068000000000C000080007E0CC
:806080002004800318000E00001C0010F80800300006C04000000360000C8001000006C000000003600000800100000200000000000010010000000000008801100000C000000000000000C000000006C00000000300000C0000300010FC0000300006C00800002361080C8005010016C40000000B610000005000000400000000000008DC
:8061000002000000000000A401200000D0000000000000008000008006C00000000300000C0000100078FF10000000000000000000000000000000000000000000000000000000000000000000000000080000000000000004000000000000000000000000000000000000000000000000000000000040FB200004800010000240000800D7
:80618000012000048000100002400008000120000400000000000000000200000000000000810004800040000240000800012000040002000008400008000120000400B0F9000000000000000000000000000000000000000000000000000000000000000000000000000000000000000000000000000000000000000000000000000000A5
:8062000000000000000000000000000098FF2C0004800010000240000800012000048000100002400008000120000400000000000000000000000000000000200004800010000240000800012000048000104402400008000120000400A3F804900000000000000000000000000000000000000000000000000000000000000000000000C4
:806280000000000000000000009000100002480000000120800480001040024800080001200004800010B9FF38000480001000004000080001200004800000000200000000010000000000000000000000000000000000000000001000020000020001000004800010000040000000010000048000100020FC080000000000000010000012
:8063000000000000000000008000000000400000000120000000000000000000000000000000000000000000000000000000000000000000000000000000000000000000BEFB20840480001000824000080001200004800010040240080C020120080401000000000000000000000000000000208804800010440240000842012000048091
:806380002012008248000822012000040068FF00000000000000000000000000000000000000000000000000000000000000000000000000000000000000000000000800010000008000100000400008000000000480001000024000080080FC4000000000000000000000000000000000000000000000000000000000000020000002004E
:80640000000000100000000000400000000020000000000000020000000001200000000000000000000000B8FF00000000000000000000000008000000000000000000000000000000000000100010004000000008000000008000000000000000000000000000000000000000000000080800000000000018FA04000000000000000000BC
:80648000000000000000000080000000000000000002000000000000000000000000000000000000000000000400000004000000040000000000000000000000010000000078F8000000000000000000000000000000000000000000000000000000000000000000000000000000000000000000000000000000000000000000000000009D
:80650000000000000000000000000000000098FF00000000000000000000000000000000000000000000000000000000000000000000000000000000000001000000000000000000000000000000000000000000000000000000000000000088FE0000000000000000000040000041000010000200101000080000004010000000000000F2
:806580000000000000000000000000001008000020000000000000800000000000000000002010008000100840FF004000000400000000000020000000000000000000840000000000001000000000000000000000000000000000000000000000000000000000000000002084000000000000000000000000E0FA000001800000000000E5
:8066000000104A804500001000020004580A10000000C00C0500000000000000000000000000000000000810000040000000000000400000A00004000000001020004000089018F90000000000000000000100100002000004020000184080621800C0000000000000000000000000000000000000000010080040000002004000008041C7
:8066800000000400000802002010080040100808FE080000000000000000020040000800000004000004004040100080000000000000000000000000000000000000000010080080000000000000008040000000000004000020100000401008E8FF0600000000000000000000000000000010000000020000081000000000000000000091
:80670000000000000000000000000000000000000000000800200000000100000100000004000000080000000074FA00000000080000000000000000000000000000000000000000000000080000000000000000000000000000000000000000000000000000000000000000000000000000000000000000000098FF2000000000000000AE
:806780000000000000000000000000000000000200000000000000000000000000000000000000000000000000000000000000000000000000000000000000000000000000000098FF000080000000000000000800200000000000000000000000000000000000000000000000000000000000000000000000000000000000000000000058
:8068000000000000000000000000000000000100B8FE1000000000400002000010200001000000000001000000000000000000000000000000000000000000000000000000000000080000000000000000000000000000000000000000000000005CFE0000000000000000000000400000000000000000000000000000000000000000003B
:80688000000000000000000000000000000000000000000000000000000000000000000000000000200000000000B8FB000000000000000000000000000000000000000000000000200000000000000000000000000000000000000000000000000000000000000000000000000000000000000000000000000020B8FD00000000000000D0
:806900000000000200000400000000000000400000000000000000000000000000000100000000000000000000000000000000000000000000000000000000000000080000000000D0F80800000000000000000000000000000000000000000000000000000000000080000000000000004000000000000000000000000000000000000038
:80698000000000000080000000004000000000000058FB00000000000000004000000000000000000000000000000100000000000000200000000000000010000000000000000080000000000000000000000000000100001000000000000000000028F8080000000000000000000000010000000000000000000000000000200000000039
:806A000000000000000000000000000000000000000210000000000008000000800000000000000000000000000000A0FD00000000000000000000000000000000000000000000000000000000000000000000000000000000000000000000000000000000000000000000000000000000000000000000000000000098FF000000800820A0
:806A800040000004808010020000000A000000000400000000000000000000200000000000000010000000000200000000010000000020000000000008000120000080000000000000DCF802000000000000000000000000004000000000000000000000000000000000000000000010000000000000000000000000000000000000000010
:806B0000000000000000000000000000000000000000A8F900000000000000104000200000000000000000000000000000000000000000000010000000000000000000000000000000000000000000000000000000000000000000000000000000200098FA0000000000000000000000000000000000000000000000000000200000000022
:806B8000000000000000000000000000000000000000000000000000000000000000000000000000010000000000000098FC00000000000000000000000000000000000000000000000000000000000000000000000000000000000000008000000000000100000040000000000000000000000000000000000000000040FF000000000000
:806C00000000000000000000000000000000000000000000000000000000000000000000000000000000000000000000000000000000000000000000000000000000000000000000000098FF08000000000000000000000000000000000000000400000000000000000000000000000000000000000000000000000400100000000000005D
:806C80000000000000000000000000000000000000000080FE00000000000000000000000001000000000000000000000000000000000000000000080000000000000004200000000000000000000000000000000000000000000000000000000000001060F900000000000000000000000000004000000000000000000000000000000040
:806D0000004000000000000000200000004000000080000800000000000000000000000000000000000000000000000000B8FB00000000000000000000800010000000000000000000000000000000000000000000000001000000000000800800000000020000000000000002000000000000000000000001000200000008FF0001000010
:806D8000000200000001010000000000000000000000000000000000000000100040001000000008000000000000002000000000080000000000200000000000000200000000004000000078FA00000000000000000000000000000000000000000000000000000000000000000000001000000000000200004000000000000000000000D9
:806E0000000000000000000000000000000000000000240098FC00000000000000000000000000000000000000000000000000000000000000000008000000000000000000082000000000010000000000000000000000000000000000000000000000000018FC060000000000000800000000008000000002000000100100400000000034
:806E80000000000000000020000000000400201000001008000010000001201000804000000201000804012010000000100818FB0C8000000080000800000000000000008000000002000008000000000008000000000000200000000000022000000000000000400000000000040000100000020000020000000400000000C0FB0030018A
:806F0000000C911A8602000000004000008003400002880008200480000020000000000000300000000008026008000008100080C2008000102001408004000106000498001020010000081088FC204200A224000080800400000100001104122032000441220024800101010000001806C0000000000004010010802000080040020800FF
:806F800001200A08804020002481001806020010080000100878FE008000000000000000000000000000200001002000900010000240000000000000080440000000000004000010800000080040000800014000008040000000010004080000100000001008D8FE000000000400000000000000000000000400002000008000000080000C
:807000000000000000080440000000000000020000004000000000000000000020010000100002400008040100000400000000F0F900000000000000000001000000002000000000000000000000000000000000000000000000000080000000000000000000000000000000000000000000000000000000008000000000000080FC000078
:8070800000000200010000000008000000000000010000000800000000000000000000010000200000000000000000000000000000000000000000000000000000000000000000000000000000A0FC0400000011000200800800090200040000000000000008000000000000000000000000200000080000000000000000200008020000B7
:807100000000000000000000000000000000000000000000000029FA0000020004800000000240000A0401000000000000004200000000000000000200000020000000000000000010000000400000000000000000000000100000000000000000000000000800F0FC16000000000100000000100000000000000000000000010000000035
:80718000000000000000000000000000000000000000000000000000000000000000000000000000000000000000000000000000E8F900000000000000000000000000000000000000000000000000000000000000000000000000000000000000200000000008000000000000000000000000000000000000000800000000040030F90051
:807200000000000000004000000000002000000000000200000004010000048000000000000000000000000000000000000000000000000000000000000000000000000000000000000000000000C2FC0200000000000000000000000000000000000000000000000000000000000000000000000000000000020000000000000000000061
:80728000000000000000000000000000000000000000000000000098FD000000000000200000420400000000000000000000000000000000000000000000000000000000000000000000C0000008102000000000000000000000800020000000000000000000000028FA000000008000000000000000000000000000000000000000000059
:807300000000000000001000000000000000080000000000000080800000000000800000000000000041000000002000000000808048FD340000000002000000000000000000000000000000000000000000000000000000000000000000000000000000000000000000000000000000000000000000000000000000000000000000C8FBD6
:8073800000000000000100000000000000000000000000000000000000000000000000000000080000000000000000004000000000000000000000000000000000000000000000000000000000000000FB2048000000000000400000000100000492400100024500080000000000000000000000000000000000000000000000040000D0A6
:8074000000000000000000000000000000000005000000000000000000F980000000000000000003000000000000000200000000000000000000000000000000000000000000000000000000000000000000000000000000000000000000000000000000000000000008FC0041000000000000C00300000B0000001004010000040000104D
:8074800000000000000000000000000000000000000000000000000000C080000000000000000000000000000600000000000000000020FE0000000000000000000000000400000001200000800008610400000000000000000000000000000000000000000000B01000C0020000000000000000000000000000000000000000000000B8DC
:80750000FF800000000000000080010000060000200012000000001302210000000000000000000000000000000000000000000000120000800000000000000000000000000018090000000000000000C8F86080000000000000000200000800000CA001020006C8007800000000000000000000000000000000000000000000003C00000F
:807580003000000000000000000000000000001E00000000000000000080FF0000000000000000000200000800000010000000001000600000000000000000000000000000000000000000000000300000C0000000000000000000000000000018000000000000000000B8FC00910000000000000001000004000000021408001001006152
:8076000012000000000000000000000000000000000000000000003009000024000000000000000000000000001A00000000000000000070FA20000000000000004000000001000004000010000040000000002000000000000000000000000000000000000000000400000000000000000000000000000000001A00000000000000000024
:8076800058FD000000000000000000000000000000000000008000000000000000000000000000000000000C00000000000000060000000000000000000000000000000000000018000000000000000000F8FC0000000000000000C00200000B0000000000004000008000000000800000000000000000000800000000000000040000007E
