:020000040000FA
:80000000FFFF62FF3900FFFFFFFFFFFFFFFFFFFFFFFFFFFFFFFFFFFFFFFFFFFFFFFFFFFFFFFFFFFFFFFFFFFFFFFFFFFFFFFFFFFFFFFFFFFFFFFFFFFFFFFFFFFFFFFFFFFFFFFFFFFFFFFFFFFFFFFFFFFFFF800C9001324006C840110051200A4481A80255048A4011280245804C9001000000000000000000000000000000000C90013200C8
:8000800026C80419280246A00814A8225004400C882A0245A008900188FE0017E0025C800B70012A800A50012A4005B4800A50012A4005A8003FE0020000000000000000000000000000000012E0025C001DF0032E4005A80015A00554800AA002544005A80015E00298FF0000000000000000000000000000000000000000000000000097
:80010000000000000000000000000000000000000000000000000000000000000000000000000000000000000000000000000000000098FF0000000000000000000000000000000000000000000000000000000000000000000000000000000000000000000000000000000000000000000000000000000000000000000000000000009850
:80018000FF0001200004A0001000000000000000000000000000000000000000612000000000000000000000000000000000000020000400101002020000000000000000000000000000000000002800F8FF1680800404000244000000000000000000000000000000000000001000040000000000000000004000000000000000A00004E7
:800200000020480240000000000000000000000000000000000000008085FC000000800000000200000800010000048000100000400008008102000400000000000000000000000000000000200000804404001210004810010000000000000002010008000000000000E8FA00000000000000000000000000000000000000000000000095
:8002800000000000000000000000000000000000000000000000000000000000000000000000000000000000000010000000000000000088FF000000000000001810000000000000001000000000000000000002000000000000000000000000000000000000000000800704001E10007010000000000000000000080000000000000000EC
:8003000010F9000000000000000001006021000000B0001604420000436020440000B0200000000000000000000000000000000000000002000088000020020C0400000000000000010000000000000000E8F900000000C000009800000001800000800040C2180000080024480800000100000000000000000000000000000080510000B0
:800380000300000C0000300000040000000000008010000020000000000048F9000000800100001E080078400302003CA007300000C0037A000700003C10000000000000000000000000000000E001000002000008000020000F0000000000000006000018000000000000D0FF0000000006010018040060000C00003000060000000003F3
:8004000060000C000030000000000000000000000000000000008001000004000010000040000C000000000000000000006010000000000018FA0000000016000098000060122C02003009260114000093601224100030090000000000000000000000000000008001000004000010000040004C0200000000000088080060000000000036
:800480000098FD20000480000000024020090001200000800010000040000800000000040000000000000000000000000000000000000080040200120900480101000000000000000200000800000000000034F9000000000000000000000000000000000000000000000000000000000000000000000000000C0000000000000006000027
:8005000000000000000000002000000000000000000000000000000000000070FF000000000000000000000200000000000000002000000000000000000000000000000000000800000000000000040000800702001E08007000000000000000000000040000000000000000F8F8008400000602005808006021200400000016C40400003C
:80058000436020000000B0200000000000000000000000000000000000000022000008000020210C040000000000001800000000000000000063FB8031004240020000090000028C8121000010024800001000020000000001000000000000000000000000000000000000000300000C000030002000000000000000000800001400000021
:80060000000051F960000C800700001EC000792003E001008007F00000C00379400000003C200000000000000000000000000000000000000002000008000020000F080000000000001E00001800000000000000FC000030000600001800026100008001000006C00000000360000000003000000000000000000000000000000000000095
:80068000000004000010000040000C000000000000001800006040000000000023F9002830100601001804106010408101000006C120000083601000000030080000000000000000000000000000000000000004000010000040000C020000000000001804006002000000000000FC309004800000000240000800410400008000100000A8
:8007000040000800012000040000000000000000000000000000000020000080140200920000488001000000000000000200000800000000000008F90000000000000000000000000000000000020100000000201000000010200000000000000000000000000000000000000000000000100000000000000000000000000000000000007D
:80078000000000A8FE000031100000000000001000000000000004002000800040000000802000000000000000000000000000000000000000800702001E00007000000000000000000000040000000000000000C0FA0C0400000602005808080900400400000000C104004000001020840900090000000000000000000000000000000011
:8008000000000012000008110020820C040000000000001800000000000000000040FE040030041002004008636082200800000002040400004320118C01901041000000000000000000000000000000804100000300000C0000300040100000000000008000000014000000000088FD60803C800700001EC0007000030000008001F0800C
:80088000008003180003E0010C00000000000000000000000000000000E001000002000008000020000F000000000000001E08001800000000000048F80C8030000600001800006000000800000000C400000003004000800100000000000000000000000000000000008001000004000010000040000C00000000000000180000600000B2
:8009000000000000E8FC801030401601005804506800840000000004C022004003400240814520100000000000000000000000000000008001000004000010000040002C020000000000005804006024000000000098FF2048048040100002410008000100000080001008004000080081220084100000000000000000000000000000002A
:8009800000000080240000924800481401000000000010008210000000000000000044FE800000000201000804000000000000000000402000000000100400001000000000000000000000000000000000000000000004000000000000000000000000000000000000000000000000E0FA00410000040000100080100000000000000080E2
:800A00000000800000000802802000000000000000000000000000000000000000800700001E08007010000000000000008000000000000000000000B0FA0004302210010040041308004C02000000860022004000201040800900080000000000000000000000000000000000000042040008010020000C0400000000C0040010000000A5
:800A80000000000000E3FE8008811002C804082008600C800400000040420000002341114408081006000000000000000000000000000000000000000300000C00133100400000000000000400000000000000000000D1FD60003C8001F04006C00372000F00000080073040008003380003E0010D0000000000000000000000000000000E
:800B0000000000000002000008C00320000F0800000000F08006080000000000000000A8FC0000300000C20000080360000C00000000060000000003604000800100000000000000000000000000000000000000000004000010000340000C0000000000C00010080000000000000000C3F90005320A44C0001001A368008C020000004690
:800B800081480040032002289051A0100000000000000000000000000000000000000004000010000340008C0200000000C0280001000000000000000028F9300004804000000240000800210200008000100802400008000120040400000000000000000000000000000000200000808400001202004811010000000000100002400008C7
:800C0000000D20000000CCFD000000000001000000002010000000000000002000000000000080400020000000000000000000000000000000000000000000000000000000000000000000000000000000000C00000000C8F80040000000000000008040000F0800000000000000C000100000000100000000000000000000000000000099
:800C80000000000001800700001E0000501000000000000000800004000000000000000028F88C090000120100000013001000000000008640220040000800000050100900000000000000000000000000000080090000A2000088020000010C0400000000C00418000000000000000000CBFD048000020408008010102010040200000014
:800D000010820040080B60022080302041000000000000000000000000000000009000000300000C00005000801000000000000240000B00144C0830000041FFE0010C8803000006C00319000A0000008007704006808370200362001C00000000000000000000000000000000E001000002000008000050000F0000000000F0801ED003F7
:800D800019000F6000000090FD8C41302006020018048300100C0200000006C10018000360000C020030000000000000000000000000000000008041000004000010000040000C0200000000C02018040360000C82810000E3FA8011300042000018002340010C0000000046404818200368002C0085101000000000000000000000000041
:800E00000000008011000004000010000040008C0000000000C00818010360084C80050000B0FA200004800000000241100800010000008000100002400008000120048410000000000000000000000000000000200000802400005210000800010000008000100002000008000000000000E4FF0000000000000000048000000000000077
:800E8000000001000000810000000440000000000000000000000000000000000000000000000200000000000000000000000000000000000000000000000060FF004030000000000000801800000000000000C04018000218000004000000000000000000000000000000000000000001800700001E100000200000000000000080000433
:800F0000000000000000000040F88809000800000048042108004C10000000020104400880080000805010080000000000000000000000000000008009000042020048000060020C0400000000C004180000000000000000009BFD0004B00020040010200260018C0800000004C48018118160122008312006000000000000000000000033
:800F800000000000000400000300000C0000002140000000000600040009000014000000000021F8E0013D880100000EC0017210030000008003F0001EC000700003E0001C00000000000000000000000000000000E001010002000008000078000F0400008007F2401E000018000000000000F8FF8441300006000018080362000C020097
:80100000000006C420180880600000840130000000000000000000000000000000008041000004000010000060100C0200000006C020180400600000000000003BFB800530124601000801116000200000000002C008580022600084808490100000000000000000000000000000008005000004000010000060012C0000000006C002582C
:801080000000600A0000000000B0FC30483480000000024010080001000004802010000240000800012000040000000000000000000000000000000020450080040000920000080001000000000010000200000800000000000004FD000000000000000000810010000000000000010000008000000000000000000000000000000000007F
:801100000000000000000100000002000008000000000000000000000000080000000000000000B8FF00400C000600000000820000000000001000010000000060000002003000000000000000000000000000000000C04000800700001E0000002000000000000000800000000020000000000018FC8C04000A80000000002020104C02FD
:8011800000B00042000000008100218C0000000A000000000000000000000000000000A004000022020008090060020C0400000000C00400100060010000000000B3FA0409B108460800401001401040000000120404408004826004000448B008000000000000000000000000000000C00000000300000C0000002480040000000000481C
:8012000080080000010000000000F1FBE000088007000006C0003A000F04003C8003300006C00178400F60003C000000000000000000000000000000008000000002000008000078000F0000000000F00006000078400000000000C8F98C01300806010018000062100C0200300806C40018008360000C82013008000000000000000000B6
:801280000000000000000001000004000010000060100C0200000000C0201010006010000000000043F88004020226000018051220010C0000300002C02818092160140C802930020000000000000000000000000000000001000004000010000060000C0000000000C00000010060000000000000E8FC2000048000000002400008000D6E
:80130000000000802010000240000800012000040000000000000000000000000000000020490480040000122100080001200000000010000200000800012000000070F90000000000000000000000000000000000020100000000000000000000000000000000000000000000000000000000000000040000000000000000000000000056
:801380000000000000000000000000E8FE000000000604001810001800020000000004010018C40000000082410000000000000000000000000000000000C04100800700001E00000020000000000000008000040000000004000000C0FC000000004000004000000800810200000040000000410000008C001000000000000000000010D5
:8014000000000000000000A810000022040008200060020C0400000000C00418000000002C00000000C2F80010301026000058000860020C0000000002040058041300012080450001020000000000000001000000000000C00030040300000C0000000220040000000000420021000014400030000000FE60403C800702001ED08070102E
:8014800002080000800130201E808318200FE8010C0804000000000000100200000000000088003C0002000008000078400F6000000000F0001E000018000F6800000000FB8001300006010018040360000D0000000000C40018000360000C820130800400000000000050020000000000000801300004000010000060100C020000000026
:80150000C02018040060400C8201000011FE804530004600005800836000210800000004C08498080360114C8005B1080400000000000000020000000000000001300004000010000060024C0000000000C00498000060044C80890000E0FF1000000000000000000000002004000000000000000000000000000000000400000000000087
:8015800000020000000000000000000000000000000000000000000000000000000000000000000000008CFB20000480001000024000080000200004800010000240000800012000040000000000000000000000000000000020000480001000024000080001200004800010000240000800012000040088FE000000000000000000000099
:801600000000040000000000000000000000000000000000000000000000000000000000000000000000000000000000000000000000000000000000000000000000000098FB2C000480001000024000084240200004800010000240100A42012000040000000000000000000000000000000020000480001000024000080001200004802D
:8016800000100002400008000120000400C3FE04000020000000000000000000100000000000000000000000000000000000000000000000000000000000000000880000200200000100002200000000000000000000000000000000000049FB20000080001000024000000001200004800010000200000000012000040000000000000097
:8017000000000000000000000020000480001000025000080001200004800010000240000800012000040090FE0C000010000000000000002000040000000000000000000120000000000000000000000000000000000000000000000100000400001000004000000000000000000000000000000000000093FB2000008100100002400072
:801780002802412000048000100002401128020120000400000000000000000000000000000000201004804010000241000804012000048000100002400008000120000400B8F90000000000000000000000000000000000000000000000000000000000000000000000000000000000000000000000000000000000000000000000000000
:80180000000000000000000000000000000098FF00000000000000000000000000000000000000000000000000000000000000000000000000000000000000000000000000000000000000000000000000000000000000000000000000000098FF2000000000000000400000000100000000001000000000000001000000000000000000C8
:8018800000000000000000000000000000000400004000000000000000000000000000000000000000000000F8FB00000000000000000000002000000000000000000000000120000000000000000000000000000000000000000000000000080200000000000000000000000000000000000000000000000000FD00000000000000000069
:8019000000000000000000000000000000000000000000000000000000000000000000000000000000000000000000000000000000000000000000000000000000000000000098FF002000000000000000000000000000000000000000000000000001000000000000000000000000000000000000000000000000000000000000000000AF
:8019800000000000000000000000000000008020FD020000000000000000000000080021000000240000004000000000000000000000000000000000000000000000804000000201000804000000040200000000000000000000000000000000D8FF00000000000100000400000000020000080200000000000010000000000000000000EE
:801A00000000000000000000000000000000000000000000000000000000000000000008040000000000000000B0F900000000000400001000000002488000A0002200000000014000000000000000000000000000000000000000004080000001020004080000000204000000000000021400400B000000000004FC000100000040000059
:801A800000800000008040200400000008000000020800000000000000000000000000000000000000000000000201000804010000040200000000400010020000400000000000B0FE00000000004000000000020000004100000000000200000000000000000000000000000000000000000000000000000000020100080401000004027F
:801B00000000000040000000000000000000000060F88A0000000000000000000000000000200400000000000000000400000000000000000000000000000000000000000000000000000000000000000000000000000008040000000000000000C1F8000000000000000000000000000000000000A00008000000010000000000000000AD
:801B8000000000000000000000000000000000000000000000000000000000000000000000000000000000000000A8FE000000200000000000000000000000000000000000000000000000000000000000000000000000000000000000000000000000000000000000000000000000000000000000000000000000B8FF0000000000000068
:801C0000000000000000080000000000000000004000000000000000000000000000000000000000000000000000000000000000000000000000000000000000000000000000000010FB100000000000000000000000002000000010004000000000000000000000000000000000000000000000000000000004000000000000010000008C
:801C800000000000080000000000000000000000007CFD00000000000000000000000000000000000000000000000000000000000000000000000000000000000000000000000000000000000000000000000000000000000000000000000000000098FF0000000000000000000000000000000000000000000000000000000000100000BC
:801D00000000000000000000000000000000000000000000000000000000000000000000000000000000000000000098FE000020080000000000000000000000000000000000000000000000000000000000000000000000000000000000000000000000000002000040000000000000000000000000000000000000B0F9000004000000B6
:801D8000000000000000000000000000000000000000000000000000000000000000000000000000000000000000000000000000000000000000000000000000000000000000000000D8FF00000000000000000000080000000000000000000000000000000000000000000000000000000000000000000000000000000000000000000004
:801E000000000000000000000000005000000000000010FA00000000000000000000000000000000000000000000000000000000000000000000000000000000000000000000000000100000000000000000000000000000000000020808000000000000FC08000000000000000000000000000000000000001000000000000000000000D2
:801E8000000000000000000000000000000000040000000000000000000000000000000000020000002000040000000081FF00000000000000000000000000000000000000000000000000000000000000000000000000000000000000000000000000000000000000000000000000000000000000000000000000000098FF0000000000A1
:801F00000000000000000000000000000000000000000000000000000000000000000000000000000000000000000000000000000000000000000000000000000000000000000000000098FF0000000000000000000000000000000000000000000000000000000000000000000000000000000000000000000000000000000000000000CA
:801F80000000000000000000000000000000000000000098FF00008000000000000000000004000000000000000000000000000000000000000000000000000000000000000000000000020000000000000000000000000000000008000000000000000058F900000000000000100200408000000000000000000000000000000000000099
:8020000000000000000000000000000000000000000000000000000000000000000000000000000000000000000000000060FA00000000000000000002400008000000000000000000020000000000200000000000000000000000000000000000000000000000000000000008000000000080001000000000000000000058F88001000031
:8020800000000000000A00000C0000080000A00000000010000C4000000000000000000000000000000000000040000080000000000000000000100000000000000C00000000000000008084FC0000500002000008000000000000000080020020004000001000404000080000000000000000000000000000000000000000000000000016
:802100002010040200000000402000000000000002000000A8F940020000000000008084001010050000080000001000800000120000000000000000000000000000000000000000000000000000000000000000080000000000202012000010000000000098FD000000000C00000000000000000000000000000200000080000020000460
:8021800000000000000000000000000000000000000000000100000004000000000000000000000000000000000000000000D8FE200000000000000040000000010000000000100000000040000100000000000000000000000000000000000000000000000000000600000000000000000000000000000000000000000000B8F902000099
:802200000000000000000000000000000000000000000000000000000000000000000000000000000000000000000000000000000000000000000000000000000000000000000000000000009AFF00400000000000000000010020000000000000002000000000000200000000000000000000000000000000000000400000000000000002
:80228000000000000200000000000000040000000000000000D8FA00000000000000000000004000000000000240000810012000040001200000000000000000000000000000000000002000000000080400000004220000000000200804800000000000000018FF8200100000000008040020100480000000000000000400000000820039
:802300001000000000000000000000000000000000000000000400000000000000000000000000401000000020000000000080FCFD2000040000000002100008602922000000012000049C0010000268000C0000000000000000000000000000000000000880B40000040800000002440000000010C00408000910000000000080FB000131
:80238000080886801850008140B828002510000241109084C360B02880013000000000000000000000000000000000000010800004000804000000044240200000812008040008421240004800D8FC000000200400000000810040000000200002410000104140100040000800000000000000000000000000000000000010000000000882
:8024000004000000040220000000012008040000000000000000C8F8800000008120200400001010024020000000002008808010000280001000000000000000000000000000000000000000000000000000000000000000040000400000000000000000000000F0F8100008000000000000001000020000000000000000800010000000CE
:80248000001000000000000000000000000000000000000000000001000000000000000000000000000000000000000020000000FCFA000000000100000404000000020000000001000040000000000020000000000000000000000000000000000000000000000000000000001000020000000000200000000000000000000000F8FD0022
:802500002000800000000080000000000100000010000000000000000001000000000000000000000000000000000000000000000000000000000000100000000000000000000000010000000000A0FC00000000020000080000000000000000000000000040000000000040004000000000000000000000000000000000000000000000B2
:80258000081000000000000000000000000000000000000000000098F800000000000000000008000000000000000000000000000000000000000000000000000000000000000000000000000000000000000000000000000000000000000000000000000000000090FF000008008000000000000000000000000000000000000000000014
:802600000000000000000000000000000000000000000000000000000000000000000000000000000000000000000000000000000010FF48000000000000100200000000000010000000000000000000020000400000000000000000000000000000000000000000000000000800000002000000000000000400000000000000000050FA47
:80268000000000000000000000000000000000000000010000100000000000000008000000000000000000000000000000800000000200000000002000000000000000000000000000000000000000B8FE000002000084000010000000000000000000000000000000200010000000000000000000000000000000000000000000000000A3
:8027000000100000100000000000000000000000000800008000000058FF00000000000400000000000000020000000000010080000000000001200000000000000000000000000000000000200000800000000200400800000000000000000000000000000102000090FB000000000000000000000000000000000000000000000000003A
:80278000000000000000000000000000000000000000000000000000000000000000000000000000000000000000000000000000000098FF00008000000000000000000000000000000000000000000000000000000000000000000000000000000000000000000000000000000000000000000000000000000000000000000000000010B2
:80280000FF000004000000000200000800012000058000000000400000000000000000000000000000000000000000000000A0010000000000004000000001000000800010000040000A00010000000030FE000000000000000000006000008000000000000000000000000000000000000000000000000000000000000000800100000019
:8028800000000000000000000000000000C00000000100000000000000B0F9000000000000000600007800006001098001000000C000000000000000000000000000000000000000000000008001000000000000C0000000030000008001F08000C00202000300000000E8FE0000000000000002000000420C8209048000000000400000C4
:8029000000000000000000000000000000000000000000000080010000000000004000000001000000800000080000130000010000000060FC0000300200000018090030008041013006160200000023020000000000000000000000000000000000000000000050000000000000008300004C0000000006680000801262020C0200000054
:80298000F8FC00003C200000001E000040000F0001398007000000C003000000000000000000000000000000000000000000006000000000000000800300000F0800008007800000000278200E00000000A0FD0000300000000018000050000C840030000600000000030000000000000000000000000000000000000000000000000000EF
:802A000000000000000300000C0000000006A00000000160000C0000000070FF0000300000000018000020000C80203400060000000003000000000000000000000000000000000000000000000000000000000000000300000C0000000006400000001162000C0000000090FB0000048000100002400008000120840480061000004003B5
:802A80000000000000000000000000000000000000000000000000000400000000000000000001000000800010000040080100000000000084F9000000000000000000000000008000000006000000000300000000000000000000000000000C000000000000000600000000000000000000000000000000000000000001000000000000DF
:802B00000018FF00000C0000020006C00058000060810C0006300000000300000000000000000000000000000800000000000000040008000000000000000000030000008001B08000C00201000000000000C0FC0000040026000002400020428C8405040006000000000300000000000000000000000000000000000000000000000004B1
:802B8000000000000000000000010000008000400800000B0000000000000063FD0000B00880C0021801133000804001300900C022000008000000000000000000000000000000000000000000000000300400000000000000004C080000001660000080120200000000000041FE0000388007F0401E888340000F0401398001E10000C0CF
:802C000080000000000000000000000000000000000000000000000000380000000000000000000F000000800782000000020000000000000070FB0000300006C10018000350000C8000300000C000000000000000000000000000000000000000000000000000000000300000000000000000000C0000000006A000000001000000000056
:802C80000000F3F80000300026C00018000320000C8204310000C000000000000000000000000000000000000000000000000000000000340000000000000000000C000000000640000000110400000000000020FC300034000000001A000008000D20080480060000004000000000000000000000000000000000000000000000000000D9
:802D0000040000000000000000000D000000000010000240200100000000000030FB0000300000000018000000000C80800000060000000000000000000000000000000000000000000000000000000000000000000000000000000C0000000000000000000100000000000000E0FC0000300000000018000058000C600108000600000046
:802D8000C0000000000000000000000000000000000000000000000000000C0000000000000000000C0000000000B08006C00201000000000000C8FC0C00300000000018000020420C80910400060000004000000000000000000000000000000000000000000000000000000000000000000000000C0000000000400802000300000000C8
:802E000000000050F98441004000000080040030000050013012200000000063000000000000000000000000000000000000000000000000B008000000000000000080020000000060005880120200000000000070FBE0010C000000000600004000030001398001010000C003000000000000000000000000000000000000000000000094
:802E8000003800000000000000000003000000000080001E100200000000000000F8FF8C01300000000000000050000C8080300000000000000300000000000000000000000000000000000000000000000030000000000000000000000000000000A00018000102000000000000F8F88001302000000000000020004C82003400000000D6
:802F00000000030000000000000000000000000000000000000000000000003000000000000000000000000000000040001800090000000000000020FD000004000000001A40000800012004048000100000400308000020000000000000000000000000000000000000000004000000001A400000000D00000080061000004008000000CD
:802F80000000000010FC0000000000000018000000000080800000000000000003000000000000000000000000000000000000000000000000000000000018000000000C000000000600000000010100000000000020F90000001000000018800058000060010C800120000000031000004000000000000000000000000000000000000004
:803000000000080000000000000000000C0000000006B08000C0020000000000000090F90C00300100000018400020420C82850480001000000003080000200000000000000000000000000000000000000000040000000000000000000C0000000006400800000B0100000000000020FE0400000200000000010B3200804101B00026C4CA
:8030800004000000602200808100000000000000000000000000000000000000B0000000004000030000800000000040600000801202000000000000D0FA00003C0800000006840340000F0001398807E04000C080700000C00100000000000000000000000000000000000000381000000006C883000003020000800181000000020000BC
:80310000000000000038FD0C00300000000000000350000C8400300006C00000000060000080010000000000000000000000000000000000000030000000001804000100000000000000A0000000010100000000000090FB0000B02000000000400320000C8010320006D000000000680000A00100000000000000000000000000000000CA
:803180000000003400000000180010000000000000000040000000110000000000000040F91000000000000002400008010120080580001000004003080000200000000000000000000000000000000000000000040000000000000000000100000400001048004008040001000000002CFA000000000000000000002020008000000000D1
:80320000000000000360000000000000000000000000000000000000000000000000000000000000000000000000000000400000000100000000000000F0FB0000000000000006000058000360010980013000000003004000400000000000000000000000000000000000000000001000000000000000000300000C0000B04000C00200EF
:8032800000020000000028FC0C0000000000000200006021018011048000000000000360020020000000000000000000000000000000000000000030020000000000000000010000000000C00000000B04000100000000CBFD0400000000000018030350000C4801300216C0040000886002008085000000000000000000000000000000F1
:8033000000000000000A00000000000000002C0000300A00A08400801202000C1000000091FD080000000000001EC00341400F0001399007E22000C000782000C001000000000000000000000000000000000000003C0000000000000000000F0400380000800000000200000E0000000048FF1800000000000018000021400C800031006A
:8033800006C000000000600000800100000000000000000000000000000000000000300800000000000000000C0000300000400000000100000C00000000EBFA0000000000000018001020000C8000340006C000000000102100A00100000000000000000000000000000000000000300100000000000000000C000030000040020100210F
:8034000004000D00000000D8FD100004000000001A400008410D20100680061000024000080000200000000000000000000000000000000000000000040000000000000000000D000000800610080040200400012000000080FA0000000000000018000320000C8000000006000000000000000000000000000000000000000000000000F1
:803480000000000000000000000000000000000C000000000640800000010000000000000050FE000008000000001800005A400C6001001006200004C000000000008000000000000000000000000000000000000000080000000000000000000C0000000006B00000C00200000004000000A8F80C00040000000018001360010C8001327F
:8035000001061000024000602100801100000000000000000000000000000000000000040000000000000000000C0000000006C08000000304004C00000000BAFB040030020000000000035000404201000020C11018034360400000400000000000000000000000000000000000000030100000000000000000400200000000A084008021
:803580001202000080810000E8FC0800381000000006C40341400300013D9001E0001CC003780000E0010000000000000000000000000000000000000038000000000000000000030000008001810000000200000FE201000008FA180030000000000000032020008080300000C00018000360100080010000000000000000000000000090
:8036000000000000000030000000000000000000000000000000400000000100000C8201000089FC000034000000000080082104008008300800D0001A000360020080210000000000000000000000000000000000000034000000000000000000000000000000404200000102000C8001000090F9100004800000001A400008020120202C
:80368000048000100002400008000D200000000000000000000000000000000000002000040000000002000000000100000480001082004020000001000000007CF8000030000000001800002040008000000000000000000000000C0000000000000000000000000000000000000000000000000000000000000000000000000040000039
:80370000000101000000000000F0FE000000200100001800005800004001009001200006C0000000006000000000000000000000000000000000000060000C000000000600000000030000088001B0800080020000030000000098FD0C00308100000018000B61440C82293081001000024000000000000000000000000000000000000029
:803780000000000000200004000000000200000000010000048000C0020000030100010000000083F90400B0001602000004035200804101000106C04258040B601000814900000000000000000000000000000000008089300100000058080000000C0800B00046A08400801202004C0200000051FC08003C2007000006C00340400F0090
:80380000013D8807E2001CC003790003C0010000000000000000000000000000000000E00138080000001E000000000F0000389007820000000200000E0000000040FC1800300006000000000320400C8480300806C00018000300200C820100000000000000000000000000000000008001300000000018000000000C00003000064000BE
:8038800000000102000C000000000BF90000889006000000008320040C8010300106D00018000300024C800100000000000000000000000000000000008001300000000018000000000C0000340006401400000100000C0000000078FEA001A4800000000240000821012000048006100002400308000120003400000000000000000000F0
:803900000000000000000000040000000000400000000D000034800610401A406000000100000000E0FF0000001000000000000020000080800000060000000003000000000030000000000000000000000000000000000000000000000000000000000C0000300006400018000100000000000000A0F9800130A0010000060000582000E5
:8039800060000C000630000008031800036000300000000000000000000000000000000000000C0000000000800000000C0000300006B04018C0000000020000000040F88081208200000002000060010080880400060000980003080001200030000000000000000010000000000000000800040000000000400000000C0000300006C035
:803A0000041800410000010000000018FC0084302046010098082350000CC011300040C1288008A060028C90090000020000000000000001000000000000000030020000000000130200000000002140A18440804300002C0800000030FC60003C000700001EC08340400F4280388801E0001EC00070100FC0410C200400000000000010EA
:803A8000020000000000000800380800000000800300000302000C8001800006840000000E0000000048FA8041300006000018000021200C8001300000C00018040060000C80010080040000000000005002000000000000080030000000000000030000000000000000404000000300000C0000000098FF00083008060000180010200072
:803B00000C0000310000C00018000060000C80010000040000000000000002000000000000000030000000000040030000000000000000400800000802000D0000000030FB1000000000000000000000000000000000000000000000000000000000000400000000000000020000000000000000000000000000000000000000000000002A
:803B8000000000000000000000000000ACFF20000480001000024000080001200004800010000240000800012000040000000000000000000000000000000020000480001000024000080001200004800010000240000800012000040098FF00000000000000000000000000000000000000800000000000000000000000000000000000BF
:803C0000000000000000000000000020000000000000000000000000200000000000000000000800000010FD2C0084882014000240100A0001200004A100100882500008420120080500000000000000000000000000000000200004820010000240080A000120000482001000024000080081200004006BFA0400000000000000000000E6
:803C800000000000000000000000000000000000000000000000000000000000000000000000000000000000000000000000000000000000000000000000000000000000C9FA28000000001000000000000000000000000000000000000000000000040000000000000000000000000000000000000080001000000000080000200000000D
:803D00000000000000000800002000040018FF1800001000020000000001000002000110000040000800002000008000000000000000000000000000000000000000001000000000000001000000000010000000000000000000040000002BFB20001481221000024911280A01A00414814052048A4020290281A4100400000000000000FC
:803D8000000000000000000000209014820010000249110800812400148140524802492109004520000400B0FB00000000000000000000000000000000000000000000000000000000000000000000000000000000000000000000000000000000000000000000000000000800000000000000000000000018FF000000000000000000004D
:803E0000000000000000000000000000000000000000000000000000000000000000000000000000000000000000000000000000000000000000000080000000000000000018FF0000001000000000000000000040000000020000000000000000000000000000000000000000000000000000000000080000000000000000000000000051
:803E8000000000000000000100000100000068FB00000000000200000000012000008000100800000008020020000080001000000000000000000000000000000000000400000000000000000000000000000400000000800400000000000040FE0200000000000000000000000000000000000000004000000000000000000000000000DC
:803F00000000000000000000000000000000000000000000000000000000000080000000020000000000000078FF000000040000000000000000000000000000000000000000000000000000000000000000000000000000000000000000000000000000000000000000000000000000000202000000000000F8F9800000000000000800C7
:803F800000201004000000080011200004000000000000000000000000000000000000000000000000400000000000000001000004000000000040200000010010000000000078FD0000100800000000000100000000000000024000000001000000000000000000000000000000000000000000008000000000000000040000000802003B
:80400000000000010008108000000000000000A0FD480014200000000440001020AA012D009000324000480000000000000000000000000000000000000000000000A08000000000008092000000030800000000244002900002200002000000F8F900102900000A2000040F2518044220082D424506B803014000080000000000000000D1
:8040800000000000000000000000000004000000000080400840000C0101100806912000458020000480000000F0F900000000000020000402204004080000200484001000020000000000000000000000000000000000000000000000000000000000000000000004000020200201200004004200080001000038FE040010000000000039
:8041000000010010000000010800000008040040000800000000000000000000000000000000000000000000000000000000004000010201000004800000000000000000000000DCF8000000000000000000000000000000000000000000000000000000000000000000000000000000000000000000000000000000000000000000000035
:804180000000000000000080000000000000000018FF00000000000000000000000000400000000000000000000000000800000000000000000000000000000000000000000000000000000000000000000000000000000000000000000000000058FB00000020000000000000000000080040000000000200000000000000000000000023
:80420000000000000000000000000000000000000000000000000000200000000000000000000000000008000000F0FF10000000000000000000000000000109000000000040000000000000000000000000000000000000000000000000000000000000000000000000000000000000000000000100000000000094FA00004000000000FE
:804280000000000000000000000000000000000000000000000000000000000000000000000000000000000000000000000000000000000000000000040000000100000000000000D8FE00000000000000000000000000000000000000000000000000000000000000000000000000000000000000000000000000000000000000000000E3
:80430000000000000000000000000000000000000098FF000000000000000000002000200000000000000000000040000000000000000000000000000000000000000000000000000000000000000000000000000000200000004000000000000000F8FD0800000000000004000000000000000000000010000000000000000000000000B5
:804380000000000000000000000000000000000004000000000080000008000000040000100000400000000100000008FF00000000020000200000000000000100000000000000000000000000000000000000000000000000000000000000000000000000080000000000000000000000000000040000000000000020FB0000000000008B
:8044000000080000000000004000000000000000080000000000000000000000000000000000000000000080002000000000000000000000010000000000000000000000000000000018F804000000000000000000000000000004000000000000000000000000000000000000000000000000000000000000000000000000000000000033
:8044800000020000000000000000000000000000008010FD00000008000000000000000000200002008000000000000000000000000000000000000000000000000000000000000000000000000000000000000000000000000000000000000000000018FF000000000000000000000000000000000000000000000000000000000000006C
:80450000000000000000000000000000000000000000000000000000000000000000000000000000000000000000000098FF0000000000000000000000000000000000040000000000000000000000000000000000000000000000000000000000000000000000000000000000000000000000000000000000000000009CFB000000000009
:804580000000020000000000000000000000000000000000000000000000000000000000000000000000000000000000000000000000000000000000000000000000080000000000000010FD00000000000000000000000800000000000000000000000000000000000000000000000000000000000000000000000000000000000040005C
:8046000000000000200000000000040800000000000000B0FB00000000000000000000000001000000000000000000000000000000000000000000000000000000000000000000000000000000000000000000000000000000000000000000000000000088FE000000000000000000001001000000000000000000000000000000000000CB
:8046800000000000000000000000000000000000000000000000000000000000000000000000000000000000000000000098FE80000000000000000000000000000200000000000000000000000000000000000000000000000000000000000000000000000000000000000000000000000000000000000000000000000038FF000000006B
:804700000000000000000000000002000000000000000000000000000000000000000000000000000000000000000000000000000000000000000000000000400000000000000000000000F8FF020200000000000000000000000020000000000000000000000080000000000000000000000000000000000000000000000000000000005C
:80478000000000000000000000000100000000000000000020FD000000000000000000002800000004000000000000000000000000000000000000000000000000000000000000000000000000000000000000000000000000A00000000000000000000000D0FD0000000000000010000000000000000000040000000002000008000000E4
:804800000000000000000000000000000000000000010000000000100000000008000000000400001000000000000000000018FD00000000000000000000000000000000000000000000000000000000000000000000000000000000000000000000000000000000000000000000000000000010000000000000000000000088FF0200005D
:80488000008000000804002000020040000002400000408000000400000000000000000000000000000000000000000000000102000800000000040200000002400000000000000000000000D8FA1A000000000000000001000008020000000001000802000000000000000000000000000000000000000000000000000008040000000063
:8049000000000000004000000000200000800000000000000028FF000310000C820104488010102B088010000124140290002110020005A000000000000000000000000000000000000010A501020004000000000204280100A1208000000042010000000000F8FE2000000005000000420825B004816008500221024A052332100C0080F1
:80498000A2000000000000000000000000000000000000080A020000000002000008020810002240141000410001000940000018FA00000000000000000000200804802000000401000484001008010000000000000000000000000000000000000000000008010000000000000000020010000240000000010000000040000090FC00001E
:804A00000000010000000400000000024000000000000000010000040000100000000000000000000000000000000000000000000000008000000004000000000000200800800000000200000088FA100008000100000080000000000004080000200004000010000000000000000000000000000000000000000000000000000000000051
:804A8000800000000000000800000000000000000002000000006CF900000000000000000000000000000000000010000000000000008000000000000000000000000000000000000000001000000000000000000000000000000000000000000000000000000000FE000080000000000000480000100080000000000000000000010000D0
:804B000000000000000000000000000000000000000000000000000000000000000000000000000000000000000400000000000090FE00002080000000000002000002002000000000000800004000000000000000000000000000000000000000000000000000000000100000000000000000000000000000000000000000000088FA12F3
:804B80000000000000000000000000000000000000400000000000000000000000000000000000000000000000000000000000000000000000000000000000000000001000000000000000000000F8FC000000000000000000040000000000000000000000000000000000000000000000000000000000000000000000000000000000006D
:804C00000000000000000000000000000000000000000000000000D8FB18000000000000000000000000000000000080000000000000006000000000000000000000000000000000000000000000000000000000000000000000000000000000000000000000000000F90000000000000000000000000080000000000000000000000000F0
:804C80000000000000000000000000000000000000000000000000000000000000000000000000000000000000000000000000000090FF00000000000000000000001008A000000000000000000000000000000000000000000000000000000000000000000000000000000000000000000000000000004000400040000040000000B8F8BD
:804D0000000000000080000000000000000000400000000000000020000100000000000000000000000000000000000000000000000000000000000000000000000000000000400000000000000080BAFE000000000000000000000008000000000000000000000000000000000000000000000000000000000000000000000000000000D2
:804D800000000000000000000000000000000000000200000000000038FF000000000000000000004000000000000000000000000000000000000000000000000000000000000000000000000000000000000000000000000000000000000000000000000000000000D8FB2000040000904800000000000100000480061000024300080C77
:804E00000D0000050000000000000000000000000000000000000000000000000000000001000000000010000000000000000000000000FD0000000000400000000000000C0000000006000002000008000C000000000000000000000000000000000000000000000000000000000000000000000000000000000000000000000000009812
:804E8000FB00000000008040000000000000040000000700201600005A000E60000008000000000000000000000000000000000000000000000000000000000000000000000000000000000000000000C8FD0000801000C00800000000000C0000008006C00008000320000D0000300100000000000000000000000000000000000000000E
:804F00000000000000000000000000000000040100000000000000000058FC8001300200800000000000000C0100300106000414000850000C800902040000000000000000000000000000000000000000000000000000000C0100000000C00400000000000000000000B0FDE0810C1000F08000000000000300003C0807F04010C0034258
:804F8000000EE0013C000000000000000000000000000000000000000000000000000000000F0000000000308000000000000000000000A0FD8001002000C00000000000000C0400300006C00014000350200C800130000000000000000000000000000000000000000000000000000000000C000000000000000000000000000000000073
:8050000060FF8001000100E08200000000008E0000308006C02448089320040C800130090000000000000000000000000000000000000000000000000000000C000000000000400000000000000000000018FD00000400009044000000000049040024A1001000024300080C0120000400000000000000000000000000000000000000001F
:805080000000000000000000000000000000100000000000000000000000D8F8000000000000000000000000000000100000000002000008000000000000000000000000000C00000000000000060000000000000000000000000000000000000000000000000000000000C0FD0000000000C08000000000000C0000202000002016000025
:805100005A00020000000800000000000000080000000000000004000000000000000000000000000000000000000000000000000000000070FD000000000080080000000000080100300006C400080003200001801131010000000000000000000000000000000000000000000000000000000000000000000004010000000000000000D3
:8051800000CBFE0000000000C04800000000008C0400200010024814000854000C0090000100000000000000000000000000000000000000000000000000000000000000000000080000000000000000000041FD00000C0800F00000000000000F00003CA007F00010C00340000EE2013C100000000000000000000000000000000000004B
:8052000000000000000000000000000000000030400000000000000000000048FC0000300000C00000000000000C0400300806C00014000350400C80013000000000000000000000000000000000000000000000000000000000000000000000C0000000000000000000000093FA0000304100C00201000000002C0000380106C1204810F3
:805280008320040C8041300800000000000000000000000000000000000000000000000000000000000000000000880000000000000000000018FB1000040000104400400000000100000480001000024300080C010000050000000000000000000000000000000000000000000000020000000000000000000010000000000000000000B9
:80530000000008FA0000000000000000000000000C000000000000000200000800000000000000000000000000000000000000000000000000000000000000000000000000000000400000000000000000000030FF00000000000080000000000000080000200000201600005A000260000008000000000000000000000000000000000004
:805380000000000000000000000000000000000000400000000000000000000090FB0C00801000400000000000000C0000300006C40008000320000100003001000000000000000000000000000000000000000000008020000000000000000000000800000000000000000000F0FE0400300200000800001300004C0200302140020214C5
:80540000001054008C80218010000000000000000000000000000000000000000000009800000000000000000000008800000000000000000000D8F808000C1000704000C00302000F00003C8007F08010C00340000EE2013C00000000000000000000000000000000000000000000000610000000000000000000300000000000000000BA
:8054800000000040F91800002000800000000300000C0000301006C00014080350200C8001300000000000000000000000000000000000000000000000000000000000000000000080800000000000000000000010F8000000010040140000030000420400300216C12288008B20000C8001B0080000000000000000000000000000000011
:80550000000000000000000800000000000000000000080000000000000000000000FE1000040000100000000008000920000480241400024300080C0100000500000000000000000000000000000000000000000000000200000000000000000000100000000000000000000000A8FE0000000000000000000000000004003000020000BF
:8055800002000008000000000000000000000000000000000000000000000000000000000008000000000000000000004000000000000000000000E8FF0000000000000000000000000C000000000402201600005A000260000008000000000000000000000000000000000000000000000010000000000000000000004000000000000016
:805600000000000090FE0C003008000000000000600A480200304046C000080003200001000030010000000000000000000000000000000000000000000000010000000000000000000008000000000000000000009AFD0400801000C02400000000018C8881300224000014001050002C8009800000000000000000000000000000000024
:8056800000000000000000900800000000000000000080840000000000000000000068F808003C0000F00000000078400FE0013CA007F28010C00341000EE2813C2000000000000000000000000000000000000000000000060000000000000000000030000000000000000000000030F91800300000C00000000060000C8801300006C04A
:805700000014000350200C8001300000000000000000000000000000000000000000000000001000000000000000000000800000000000000000000079FB0000300A00C00000000060144C8001081127C1288802A320010C8001300A0000000000000000000000000000000000000000000000000000000000000000000000000000000068
:80578000000000000088FE1000040000100002000008000100002480241200024300080C012000040000000000000000000000000000000000000080000000020000000000000000000010000000000000000000000040FB0000000000C00000000000000C00000010000040020000080000000000000000000000000000000000000000A9
:8058000000000000000000000000000000000000000000000000000000000000000000A8FA00000000000000000000000000040030080602801600005A00020000000800000000000000000000000000000000000000000000000000000000000000000000000000000000000000000028FF0C00300800C000190800600A0C0000A00024C2
:80588000000008000320000100003001000000000000000000000000000000000000000000000000000000000000000000000000000000000000000000B3FC0400001200C04280000000242C0800304226044414002051004C800100120000000000000000000000000000000000000000010040000000000000000000000008000000001F
:8059000000000000000071FA08003C0000F0001E080078000F00003C8007300010C00340000EE2813C0000000000000000000000000000000000000080010000060400000000000000000030200000000000000000000068FD1800300800C00018040060100C0400300006808014088350000C800130080000000000000000000000000052
:805980000000000000000601001800000000000000000000C00000000000000000000000E6FE000030020020441801006004820000300816040808012320400C80013002000000000000000000000000000000000000001600001805000000000000000000C0220000000000000000000068FA30090500009000020000000049040024A151
:805A0000001000024300080C0100000500000000000000000000000000000000000000800000000200000000000000000000100000400000000000000000B0FE800030000000400000000000000000300000000002000008000000000000000000000000000000000000000000000000000202000000000000000000000000000000000009
:805A800000000000000000E8FE0081000800C00000000000000C080020000000201600005A00036000000000000000000000000000000000000000000000000200000400000000000000000000000000000000000000000070FD8C1130020080241808000000880000104200C00008000320000000008010000000000000000000000000F5
:805B000000000000000000000000180100000000000000000000000000000000000000000088F80405320800C00841000000008C0400301026004214000050000C8205000200000000000000000000000000000000000000400400400800000000000000000000000000130000000000000038FEE8013C0000F0001E100000000F00001CCC
:805B80008007F20010C00342000EE0010D10000000000000000000000000000000000000800100001E00000000000000000000302000C00302000000000000B8F99841300000C02018040000000C0000302006C02014088350000C80013000000000000000000000000000000000000000000002001804000000000000000000C0000000D5
:805C00000300000000000000B0FBC009080A00C00058000000008C0400380006C00248000B20220C80010022000000000000000000000000000000000000004000005800000000000000000000C02800000300000000000000B0FF3000040000D000820800000001000024A2C21000024300080C01200004000000000000000000000000D8
:805C80000000000000000080000000020000000001000000000010000000000000000000000010FA0000000000C000000000000000000000800200000200000800000000000000000000000000000000000000000000000000000000000000000000000000000000000000000000000000000098FB00803000000000100400000000000064
:805D000030800700001600005A000200000008000000000000000000000000000000000000000001000004000000000000000000002000000000000000000000B8F98C1130000000000001000000000000209000000008000320000180113101000000000000000000000000000000000000004600001801000000000000000000C002008E
:805D80000000000000000000007BF88409310900C00258040000000C0100302105008214000051004C0208001000000000000000000000000000000000000000100200000900000000000000000000480000000000000000000021FEE8013C0000F0201E000000000F00003C0004300010C00340000EE0813C000000000000000000000089
:805E00000000000000000000800700001E00000000030000000000F00000000000000000000000C0FD9801300000C04018100000000C0000301005C02014008350400C80413008000000000000000000000000000000000000000601001804000000000000000000C020000000000000000000002EFC8089300A00E00098000000000C008B
:805E800000300012C10808100320010C80013000000000000000000000000000000000000000000600001800000000000000000000C0000000000000000000000050FD3000048000904402000000000100000480C01000024300480C010000050000000000000000000000000000000000000480001000020000000000000004000010004B
:805F00000000000000000000000028F900000000000000000000000000000000800000000200002800000000000000000000000000000000000000000000000000000000000000000000000000000000000000000000000000000030FD0000090000C000000000000000000000800500201600005A000260000000000000000000000000E9
:805F800000000000000000000010000040000400000000000000000000200000000000000000000008FB8C0104000080801808000000000000B04002C000080003200001000000000000000000000010000000000000000800B00020C8021801000000000000000000C0020000000000000000000040FA0490300026C24800020000002CB2
:806000000000004005000415000851008C82018008020000000000000001000000000000000080002600048000000000000000B0000000420000000000000000000000F8E801389007F0001E000000000F02003C0004F00010C00350000EE0010D0004000000000000100200000000000008003CA001F4401E080000000000003C1000F004
:80608000000000000000000000000088FA9801300006C00018040000000C0000300005C02014008350000C800130800400000000000050020000000000000800300800C0201804000000000000300000C02000000000000000000000E8FC8091300006C08898000000000C0000300502C10408211340420C800130210400000000000000D9
:80610000020000000000000000300100C2049800000000000000300000C0040000000000000000000010F9100000000000000000000000000000000000040000100000400000000000040000000000000002000000000000000000000000000000000000000000000000000000000000000000000000F8FF20000480001000024000080032
:8061800001200004800010000240000800012000040000000000000000000000000000000020000480001000024000080001200004800010000240000800012000040098FF000000000000000000000000000000000000010000000000000000000000000000000000000000000000000000000000000000000000000000000000000000C1
:8062000000000000000000000000000088FE2C0004800010000240000800012000048000100002400008000120000400000000000000000000000000000000200004800010000240000800012000048000100002400008000120000400E3F80400000600000000000000000000000000400800002100002080010000000000000000000059
:806280000000000000000000000000000000000000000000000000000000000000000000000000000000A9F928000080001000024000080001200004000010000040000000000000040000000000000000000000000000000020000480001000024000080001200004800010000240000800012000040078FC1800001000000000000000C3
:8063000000000000000000040000100000400004400000000000000000000000000000000000000000000000000000000000000000000000000000000000000000000000E6FD20000481001000024000080001200004800010000240000800412010040000000000000000000000000000000020000480001000024000080001200004808C
:8063800000100002400008000120000400D8FA000000000000000100000000000000000000000004000000000000000000000000000000000000000000000000000000000000000000000000000000000000000000000000000000000000D8FE00000000000000000000000000000000000000000000000000000000000000000000000071
:8064000000000000000000000000000000000000000000000000000000000000000000000000000000000098FF00000000000000000000000000000000000000000800001000000000000000000000000000000000000000000000000000000000000000000000000000000000000000000000000000000018FE0000000000000000000057
:806480000000000000000000040008100080200000000000000000000000000000000000000000000000000000000000000000000000000000000000000000000000000000A4FF0001040000000000000000000000000000000000000000002001000000000000000000000000000000000000000000000000000000000000000000000017
:806500000000000000000000000000000000F8FF00000000000000000000000000000000000000000000000000000000000000000000000000000000000000000000000000000000000000000000000000000000000000000000000000000098FF8400080000000000000000200000000000000020084480201000000010000000000000B5
:806580000000000000000000000000000000000000000000000000020000000000000000000000000000000070FE000000000000000000000000000100000000000000004100000000200008000000000000000000000000000000008000000000000000000000000000000000000000000000000008000000F0FB402808000000000800D6
:80660000000020000843000000404004C800132000002D092000000000000000000000000000000000000100000000000300000000040000000000000000000000000800008080FC0004000009000040000020000020480080408A400310810810000281220800000000000000000000000000000000000000000000000002000000000014
:80668000000000000000000000000000000000B8FA0A000000000000000000200000008000000000000000810010000100000800000000000000000000000000000000000000000000000000000000000000000000000000000000000000000090FE0C0000000000000000000000000000000000400000000000000080001000000000003A
:806700000000000000000000000000000000000000000040000000000000000000000000000000000000000080C4FA00000000000000000000000000000000000000000000000000000000000000000000000000000000000000000000000000000000000000000000000000000000000000000000000000000098FF000000000000000004
:8067800000000000000000040000000000000000080000000000000000000000000000000000000000000000000000000000000000000000000000000000000000000000000000D0FB0000002000000000000000000000000000000000000000000000000000000000000000000000000000000000000000000000000000000000000000A2
:8068000000000000000000000000000000000000B8FF1002000002001000000000000000001000100000400400000100000000000000000000000000000000000000000000000000000000000000000000000000000000000000000000000000009CFB120040000000000000000000080000000000000000000000000000000008000000DF
:806880000000000000000000000000000000000000010000040000000000000000000020000000000000000000809CFF00000000000000000000000000000000000000000000000000000000000000000000000000000000000000000000000000000000000000000000000000000000000000000000000000000098FF00000000000000C1
:80690000000000000004000040000000000000000000000000000000000000000000000000000000000000000000000000000000000000000000000000000000000000000000000098FB1800000000100000000000000000000000000000000000000000000000000000000000000000000000000000000000000000000000000000000018
:80698000000000000000000000000000000000000080FE00000000000000000000000000400008000400100000002000000000000000000000000000000000000000000000000000000000000000000000000000000000000000000000000000000080F8000000000000000000000000010000000000000000000000000000000000000024
:806A00000000000000000000000000000000000000000000000000000000000000000000000000000000000000000088FE08000000000000000000000000000000000000000000000000000000000000000000000000000000000000000000000000000000000000000000000000000000000000000000000000000090FF020000000000F7
:806A800000000000000000000000000000000000000000000002000000000000000000000000000000000000000000000000000000000000000000000000000000000000000000000098FF000000000000000000000000000000000000000000000000000000000000000000000000000000000000000000000000000000000000000000FD
:806B000000000000000000000000000000000000000098FF400000000000200000000000000000000000000000000000000000000000000000000000000000000000000000000000000000000000000000000000000000000000000000000000000000F8FF00000000000000400000000000000000100000000000000000000000000000D7
:806B80000000000000000000000000000000000010000040000000000000000000000000000000000000000000000000C8FF00000000000000000000000000000000000000000000000000000000001000000000000000000000000000000000000000000000000000000000000000000000000000000000000000000098FE0000000000D8
:806C000000001000000000000000000001800000000200000000012000000000000000000000000000000000000000000084001010000000000000000000008000000000000000000000F8FF800020000040000000000000040000800002400001000004000000002A00000000000000000000000000000000000000000200000800000066
:806C80000001000000000040000000000000000000000098FE000090000000000000000000010000000002400000000100000000005000000000000000000000000000000000000000000A0000280000000000000000000040010000000000000000000050FA002000000020010004000000120000400480003100008000000000400008C8
:806D000000000000000000000000000000000000000008090000200200000000000000000000110000000000000000000078F900000000000000200000000020000000000000000008000000000000000000000000000000000000000000000000000000000000000000000000000000000000000000000000000000000090FD0000000089
:806D8000000000000000080000010000000000000000001000000000000000000000000000000000000000000000000000000000000000000000000000000000000000000000000000000010FF000000000000000000000000000000000000000000000000000000000000000000000000000000000000000000000000000000000000006B
:806E0000000000000000000000000000000000000000000098FF000000000000000800000000000000004000000000000800000000000000000000000000000000000000000000000000000000000000000000000000000000000000000000000000000000D8FB04000400048000080000020002000004000200000000800040008000007A
:806E800008000000000000400000000000000000000000000000000000000000000000000000000000000000000000000000D8FB0800080000000000100010100000000000000000080001000000400000000000000400004000000000020000000000000004810000000000000000000000000020000000400000000000003AFF00000C7E
:806F00000001201804100009402A000008000180028242000130406128001000000008000030000000000400000000000080001400000000400100000000000080820000000800000000000028FA004000A8848000180000000009802000080C44420D10C3481CCC01253022000000000000000000000000002010000008800800480528B7
:806F800020020900000004800880200000000200000000000008FC00400008000000080000000000400000200010000200410010010000100000000000000000000000000000102000000000000000000000000000000000000000200000000000000000000078F900000000812000040000000002002000000200000080801008028240AA
:807000000800000000000000000000000000000000000000000000000000000008000000000000100000000000000000000000E0FB00000800000000000000000000010000000000000000000000020000000000000000000000000000000000000000000000000000000000000000000000000000000000000000000000000018FC0000F6
:807080000800000000000000101000000000000120401280000100004080000000000000000000000000000000000000000000000000040000000000000000000020000000000000000000000068FA0800020000000000000000000000000000100000400000000100000000000000000000000000000000000000000000000000000000D3
:807100000000000000000000000000000000000000000000000082F9000000000000000000000000000000080000000000200000000000000000000000000000000000000000000000000000000000000000000000000000000000000000000000000000000000B0FF060000000000010000000000000000000000000000000000000000B6
:80718000040000000000000000000000000000000000000000000000000000000000000000000000000000000000000000000000A8FC00000000000000000000000000000000000000000000000000000000000000000000000000000000000000000000000000000000000000000000000000000000000000000000000000000098FF143C
:807200000000000000000000000000000000000000020000800000080000000800000000000000000000000000000000000000000000000000000000000000000000000000008000000000000000E0F9080000000000C000000000002000000020000002000000000000000000000000000000000000000000000000000000000010000009
:80728000400000000000000000000000020000000000000000008088F800000000004020000080000000000000800000000200000C000000000000000000000000000000000000000000000000000000000000000000000000000000000000000000000000000000D0FB0200400000000002000000000000000000000100000000200000AE
:8073000020000400000000000000000000000000000000000000000000000000000000000000000000000000000000000000000000A8FE000000000000400000000000000000006000000000000000000000400000000000000000000000000000000000000000000000000000000000000000000000000000000000000000000000F8F972
:80738000000400000000020000000000000000001000000000000000000000000000000000000000000000000000000000000000000000000000000000000000200000000000000000000000000000AAFA200000000010000200000000000000000000000000400008000100008408000000000000000000000000000000A001000000000B
:807400000002000000000120000400C0000002400008240020900000B8FF00000000000000000000000000000000000000000000000000000000000000000000000000000000000000000080810000000000080800000000000000000000000000000000000000000018FE0000000000C000000000000000000000000000000000006010F9
:807480000008003C00000000000000000000000000000000800101000000000008000000008441008001000006000058000060010000D8F9008400000000889802000000000000000000000000001304048C000000200000000000000000000000000000008011000000000000000000004C0010B0100000000000002000008000000088A6
:80750000FC8011000000C0440009000000000000000000000000002061102000001008000000000000000000000000000000808800000000004000000000208041000116000000086050000040010000E0FE6080000000F0001E00000000000000000000000000C00378000F08002800000000000000000000000000000000E00100000048
:80758000000006080000000FE8013C9007040004C0004000000001000028FC0080000000C0201800000000000000000000000000000360100C000030080000000000000000000000000000008041000000000000080000000C804130000600001800035000004001000058FF0000000000C004980400000000000000000000000000936034
:80760000014C020030000000000000000000000000000000008009000000000000010000004C8205300906000018045320000080000000D8FF200000000010000200000000012000008000000002400008000120000400000000000000000000000000000000000000000000000200000000012000048000000002490008240020900000F9
:8076800010FA000000000000000000000000000400000000000018000000000000800010000000000000000C00000000000000060000000000000000000000000000000000000008000000000000000000F0F900400000000080000000000000048000800100000010000000000800010000000000000000080000000000000004000000E7
