:020000040000FA
:80000000FFFF62FF3900FFFFFFFFFFFFFFFFFFFFFFFFFFFFFFFFFFFFFFFFFFFFFFFFFFFFFFFFFFFFFFFFFFFFFFFFFFFFFFFFFFFFFFFFFFFFFFFFFFFFFFFFFFFFFFFFFFFFFFFFFFFFFFFFFFFFFFFFFFFFFF800C9001324006C84011005120064481A8025504880011200244804C9001000000000000000000000000000000000C9001320017
:8000800026C80419280245A00814A82250044014882002448008900168FB0017E0025C800B70012A800A50012A4005B4800A50012A4005A8003FE0020000000000000000000000000000000012E0025C001DF0032E4005A80015A00554800AA002544005A80015E00298FF00000000000000000000000000000000000000000000000000DE
:80010000000000000000000000000000000000000000000000000000000000000000000000000000000000000000000000000000000098FF0000000000000000000000000000000000000000000000000000000000000000000000000000000000000000000000000000000000000000000000000000000000000000000000000000009850
:80018000FF00012000048200100800000000000000000000000000000000000021210000000000000000000000000000000000002800050010100202000000000000000000000000000000000000200010FD0E01A000100042400000000000000000000000000000000000000001000400000000000000000040000000000000008000106B
:800200004000420202000000000000000000000000000000000000A08013FC00000000000000000000000000000004000000000200000800000000000000000000000000000000000000000000000000000000000000000000000000000010000000000000000000000068FB00000000000000000000000000000000000000001800000030
:8002800000000000000000000000000000000000000000000000000000000000000000000000000000000000000000000000000000000018FE00000000000000000000000000000000000000001E00005800000000000000000000000000000000000000000000000000000000000000000000000000000000000000000000000000000072
:80030000F8FB00000000000000000000000000000080100000000000002000000000000000000000000000000000000000000000000000000000000000000000000000000000040100000000000000000018F800000000000000000000000000000030100000000C0000300000000000000000000000000000000000000000000000000049
:800380000000000000000000000000000000C04000000000000000000000F8F90000000000000000000000000000000C0000000010000040000000000000000000000000000000000000000000000000000000000000000000000000000000300000000000000000000000E0FE000000000000000000000000000000000000000010000092
:800400004000000000000000000000000000000000000000000000000000000000000000000000000000000000000000000000000000000098FA000000000000000000000000000000001000000008000020000000000000000000000000000000000000000000000000000000000000000000000000000000004000000000000000000032
:800480000048F80000040000000000000000000000000400000000020000080001000000000000000000000000000000000000000000000000000000000000000000000000001000000000000000000000006CFE000000000000000000000000000000000000000000000000000000000000000000000000000C000000000000000600001D
:8005000000000000000000000000000000000000000000000000000000000070FD00000000000000000000000000000000080000001600005800000000000000000000000000080000000000000004000000000000000000000000000000000000000000000000000000000038FF0000B0100000000000000000000000B0000000000800DD
:800580000020008C1000000000000000000000000000000000000000000000000000000000000000000000000000040100000000000000000093FC00000001000000000000000000000000010000000C000030004000000000000000000000000000000000000000000000000000000000000000000000000000C04000000000000000002D
:80060000000099FD00003C1000000000000000000000003C1000000010000040000F0800000000000000000000000000000000000000000000000000000000000000000000000030000000000000000000000018FB000030000000000000000000000000300000000010000040000C000000000000000000000000000000000000000000E6
:800680000000000000000000000000000000000000000000000000000000000013FE000030080000000000000000000000300800000008000020000C0200000000000000000000000000000000000000000000000000000000000000000000000000400000000000000000000040FE10000400000000000000000000000004000010440257
:8007000000000800010000000000000000000000000000000000000000000000000000000000000000000000000010000000000000000000000068FA000000000000000000000000000000000000000000000000000000000000000000000000000000000000000000000000000000000000000000000000000000000000000000000000FE
:8007800000000098FF000000000000000000000000000000000800000016000058000000000000000000000000000000000000000000000000000000000000000000000000000000000000000000000000000000F0FB0C00B0100000000000000000000000B00000004208000020008C10000000000000000000000000000000000000007F
:800800000000000000000000000000000000000000000000000000000000000000B8F904008000000000000000000000000080000000480C00003000200800000000000000000000000000000000000000000000000000000000000000000000000000000000000000000000000078FE00003C2000000000000000000000003C20003000B9
:8008800010000040000F0000000000000000000000000000000000000000000000000000000000000000000000000030200000000000000000000088FA0C0030000000000000000000000000300000800010000040000C00000000000000000000000000000000000000000000000000000000000000000000000000C000000000000000BF
:800900000000000028F90000B0080000000000000000000000B00800004408000020002C02000000000000000000000000000000000000000000000000000000000000000000000000C0280000000000000000000000FA00000400000000000000000000000004000010000200000800010000000000000000000000000000000000000047
:8009800000000000000000000000000000000000000010840200000000000000000054FA00000000000000000000000000000000000000000000000000000000000000000000000000000000000000000000000000000000000000000000000000000000000000000000000000000098FF0000000000000000000000000000000008000074
:800A00000016000058000000000000000000000000000000000000000000000000000000000000000000000000000000000000000000000000000000F0FB0000B0100000000000000000000000B00000000409000020008C1000000000000000000000000000000000000000000000000000000000000000000000000000420000000000A2
:800A80000000000000D3FA000000010000000000000000000000801000C0400C00003000000100000000000000000000000000000000000000000000000000000000000000000000000080001808000000000000000051F800003C2000000000000000000000003C0000300010000040000F0000000000000000000000000000000000004B
:800B00000000000000000000000000000000000000000030401E00000000000000000028FF000030000000000000000000000000300000008010000040000C00000000000000000000000000000000000000000000000000000000000000000000000000004018000000000000000000DBFB0000300A0000000000000000000000300A00E2
:800B8000000408000020008C0200000000000000000000000000000000000000000000000000000000000000000000000000081800000000000000000020FF10000480000000000000000001000004000010000200000800010000000000000000000000000000000000000000000000000000000000000000000000000010000000000830
:800C00000000000000007CFF00000000000000000000000000000000000000000000000000000000000000000000000000000000000000000000000000000000000000000000000000000000000000000000000000000098FF00000000000000000000000003000000080000201600005800000000000000000000000000000000000000C9
:800C80000000000000000000000000000000000000000000002000000000000000000000C0F80C00B0100000000000000000000000B00000C00408000020008C10000000000000000000000000000000000000000000000000000000000000000000000000C00000000000000000000000CBF80400000406000000000000000C0200001267
:800D00000000100C00003000000400000000000000000000000000000000000000000000000000000000000000000000000000420000006008000000000009FF00003C8007040000000000000F00003C0000F00010000040000F00000000000000000000000000000000000000000000000000000000000000000000000000F00000000020
:800D80007800000000000090FD0C00300806000000000000000C0000300800C02010000040000C02000000000000000000000000000000000000000000000000000000000000000000000000C02000000060000000000000B3FE0000300206000000000000000C0000300200C00808000020008C000000000000000000000000000000003F
:800E0000000000000000000000000000000000000000000000C00800000060000000000000C0FE00000402000000000000000000000004000010000200000800812000000000000000000000000000000000000000000000001000000000000000000000000010000000000000000000000054FF000010080000000000000000000000003C
:800E80000000000000000000000402000000000000000000000000000000000000000000000000000000000000000000000000004000000000000000000000F0FE00002000000000000000000000000000000000201600005800080000000000000000000000000000000000000000000000000000000000000000000000000000400000C8
:800F0000000000000000000090FF080080080000000000000000000000000000C004080000200020820901000000000000000000000000000000000000000000000000000000000000000000000008000000000000000000007BF800001021000000000000000000000000000000040D0000300044088400000000000000000000000000FD
:800F8000000000000000000000C000010000000000000000000080840000000000000000000069FC00000C0000000000000000000000000C0800F000100000400003E00100000000000000000000000000000000000000000000F000000000000000000000000030000000000000000000000048FD040000200000000000000000000000FA
:80100000300000C020100000400000804100000000000000000000000000000000000000000000C00000000000000000000000000000000000000000000000004BFA000020000000000000000000000000304100C002080000200028880500000000000000000000000000000000000000000000C000000000000000000000000000420018
:8010800000000000000000000090FD100004010000000000000000010000040200102402000008004120000000000000000000000000000000000000000004800000000000000000000000340000100000000000000000000000BCF800001008000000000000000000000010080040000000000000040200000000000000000000000000B6
:80110000000000000000000000000000000000000000000030000000000000000000000000000058FA00002008000000000000000000000020000080201600005800080200000000000000000000000000000000000000000020000400000000000000000030000000000000000000000000000008FB0C0000020000000000000000000028
:801180000080080000020800002000808009010000000000000000000000000000000000003002460000000000000000000030000000000000000000000000000083F904009010000000000000000080000010000040180C0000300044009000000000000000000000000000000000000000800020000000000000000000000006000008C5
:801200000000000000000000000029FD00000C0000000000000000000304000C10003000100000400003E401000000000000000000000000000000000000003CA007020000000000000000000C0000302000000000000000000000C0FE0C00000000000000000000000C040000200000401000004000008041000000000000000000000025
:80128000000000000000000030080601000000000000000000000000C02000000000000000000000EBFD0000201100000000000000004C0000A00000800208000020004888010000000000000000000000000000000000000030000600000000000000000000000000C0020000000000000000000020FA2000840800000000400308000145
:801300000000040100100002000048002124440000000000000000000000000000000000000000000000000000000800000000000000100000000000000000000400D8F900000000000000000003000000000010080000000000002000008000000000000000000000000000000000000000000000000000000000000000000000000000DD
:801380000000000000000000000000B8FE0000001000000000C003000003000020080000001600005800000041000000000000000000000000000000000000000000000000000000000000000000000000200000000000000000000038FC0000000200000000400300000100000002000000080000200000080000000000000000000010AE
:8014000000000000000000080000000000000000000000000000000000C0000000000000000000000062F88091000200000000008060028C020010200000040C000030008082040000020000000000000001000000000000000000000000000000000000000000000000004800000000000000003022D0FBE0010C200000000080007840A4
:801480000F00000C0000302010000050000360800000040000000000001002000000000000080000000000000000001800000000000000F00000000000000000003C00E0FE8001000800000000000060000C0000000000C00010000020000002800080040000000000005002000000000000080000000000000000000000000000000000B9
:80150000C0200000000000000000300029FE8001200000000000000060000D0000200400C02208000040002800090000040000000000000002000000000000000000000000000000000000000000000000C0040000000000000000300040FF100000000000000000000000000000000000000000000000000000000000040000000000005A
:801580000002000000000000000000000000000000000000000000000000000000000000000000000000ACFF20000480001000024000080001200004800010000240000800012000040000000000000000000000000000000020000480001000024000080001200004800010000240000800012000040098FF000000000000000000000063
:801600000000000000000000000000000000000000000000000000000000000000000000000000000000000000000000000000000000000000000000000000000000000098FF2C0004800010000240000800012100048000100002400008000120000400000000000000000000000000000000200004800010000240000800012000048001
:8016800000100002400008000120000400E3F9040000000000000000000000000000000000000000090000240000000000000000000000000000000000000000000000000000000000000000000000000000000000000000000000000000B1FF20000480001000024000080000200004800010000040000000012000040000000000000097
:8017000000000000000000000020000480001000024000080001200004800010000240000800012000040028FE0C0000000000000000010000000000000000000000000000000000000000000000000000000000000000000000000000000000000000000000000000000000000000000000000000000000F3F9200004800010000240082A
:801780000900012100048000100002490008240120000400000000000000000000000000000000200004800010000240000800012000048000100002400008000120000400E8FA0000000000000000000000000000000800002000000000000000000000000000000000000000000000000000000000000000000000000000000000000062
:80180000000020000000000000000000000090FF00000000000000000000000000000000000000000000000000000000000000000000000000000000000000000000000000000000000000000000000000000000000000000000000000000098FF0000000000000000000000000000000000005000000000000000000000000000000000D2
:801880000000000000000000000000000000000000000000000000000000000000000400000000000000000088FF08000000000000000000000000000000000000000000000000000000000000000000000000000000000000000000000000000000000000000000000000000000000000000800000000000010FF0000000000000000003E
:8019000000000000000000000000000000000000000000000000000000000000000000000000000000000000000000000000000000000000000000000000000000000000000098FF020000000000000000000000000000000000000000000000000000000000000000000000000000000000000000000000000000000000000000000000CE
:80198000000000000000000000000000000000B8FD00000000000000000000000000000000000002000800802010000000000000000000000000000000000000000000000000000000000000000000000008100020400000000000000000000058FA00000000000000000000000000000000000000000000020000000000000000000000AC
:801A0000000000000000000000000000000000000000000000000000000000000000000000000000000000000098FD00000000000000000000000000000000000002000440001120000000000000000000000000000000000000000000000000000000000000000000000008101420400000000000000000008038F800000000000000001E
:801A800000010000000200000000000008001520100000000000000000000000000000000000000000000000000000000000000000000000000010402008000000000000000000E8F9000000000000000080000000000400000000000008000120100000000000000000000000000000000000000000000000000000000000000000000080
:801B00000000000020400800000000000000000060FC080000000000000000000000000000000000000000000000000000000000000000000000000000000000000000000000000000000000000000000000000000000000000000000000000000C5FA000000000000000000000000000000000000000000000000000000000000000000DA
:801B800000000000000000000000000000000000000000000000000000000000000000000000000000000000000098FF00000000000000000000000000000000000000000000000000000000000000000000000000000000000000000000000000000000000000000000000000000000000000000000000000000098FF00001000000000A7
:801C0000000000000000000000000000000000000000000000000000000000000000000000000000000000000000000080000000000000000000000000000000000000000000000018FE100040000002000000000000000000000000000000000000000000000000000000000000000000000000000000000000000000000000000000007C
:801C80000000000000000000000000000000000000ECFF02000000000000000000000000000000000000000000000000000000000000000000000000000000000000000000000000000000000000000000000000000000000000000000000000008030FD00000000000000000000000000000000000000000000000000000000000000004A
:801D00000000000000000000000000000000000000000000000000000000000000000000000000000000000000000098FF040000000000000000000000000000000000000000000000000000000000000000000000000000000000000000000000000000000000000000000000000000000000000000000000000000C9FA00000000000005
:801D800000000000000000000000000000000000000000000000000000000000000000000000000000000000000000000000000000000000000000000000000000000000000000000098FF00000000000000000000000000000000000000000000000000080000000000000000000000000000000000000000000000000000000000000044
:801E000000000000000000000000000000000000000010FF000000000000000000000000000000000000000000000000000007000000000000000000000000000000000000000000000000000000000000000000000000000000000000000000008000E0FF00000000000000000000000000000000000000000000000000000000000000ED
:801E80000000000000000000000000000000000000000000000000000000000000000000000000000000000000000000DCFB00000000000000000000000000000000000000000000000000000000000000000000000000000000000000000000000000000000000000000000000000000000000000000000000000000098FF000000000074
:801F00000000000000000000000000000000000000000000000000000000000000000000000000000000000000000000000000000000000000000000000000000000000000000000000098FF0000000000000000000000000000000000000000000000000000000000000000000000000000000000000000000000000000000000000000CA
:801F80000000000000000000000000000000000000000089FE00000010000000000000000000000000000000000000000000000000000000000000000000000000000000000000000000000000000000000000000000000000000000000000000000000088FF00002000000000000000000000000000000000000000000000000080000023
:8020000000000000000000000000000000000000000004800000000000000000000000000000000000000000000000000050F900002000000000000000000002000020000000800000000000000000000000000000000000000000000000000000000000040000000000000000000000000000800000000000000000000098FB00000000BA
:802080000000000000000000000000200000400004000010000000000000000000000000000000000000000000000000000000000000000000000000000000400000000000000000000000F8FE0000000800000000000000000100005000000002000000000000860000000000000000000000000000000000000000000000000000000055
:80210000000000000000000040010000000000000000000078FD000000080000000000000000000000000800A0010000000000000000000000000000000000000000000000000000000008000000000000000000000000000080110000000000000000000020FE0000000000000000000000001000000000000000100000400000010000E0
:802180000000000000000000000000000000000000000000000000000000000000000000000000000000000000000000000098FA000004000000000000020000000000000000000000000000000000000000000000000000000000000000000000000000000000000000000000000000000000000000000000000000000000F8FD0800004A
:8022000000000000000000000000000000000000000000000000000000000000000000000000000000000000000000000000000000000000000000000000000000000000000000000000008018FF40000000000000000000000000000000000000000000000000000000000000000000000000000000000000000000000000000000000087
:80228000000000000000000000000000000000000000000000FAFD00000000000000000000000000000000000140000804002010000000100000000000000000000000000000000000000000000000000000000000000000000040000000000010000000000058F80200000000000000000000000080000000000000000000080000000030
:80230000000000000000000000000000000000000000000000000000000000000000000020000000000000000000000000000032FF00001000A0000000000000004021000000012000040800182000000008000000000000000000000000000000000000A0001400000000000000000000A40000210000000000200000000000E8FC000110
:80238000A00084800010808060000C8024200C02410018040260100C0001A00000000000000000000000000000000000000000000020000000100000000000002020000000000000000000100050F8000000000000000000002200024000001001420008040020100400000000000000000000000000000000000000000000000000200090
:802400000000000000000000000000000000000000000000100058F940001000812000040000100004002010080000000280001000024000080000000000000000000000000000000000000000000000000000000000000000000000000000000000000000000030F9100000000000000000000000000000000000000000000000000400A1
:802480000000000000000000000000000000000000000000000000000000000000000000000400000000000000000000000000008CFB000000000000000000000000000000080000000000000000000040000000000000000000000000000000000000000000000000000000000000000000000000200000000000000000000000B0FB003E
:80250000000000000000000000000000000080200000000000000000000000000000000000000000000000000000000000000000000000000000000000000000000000000000000000000000000038FD0000100400000000000000000000000000000000000000000000000000000000000000000000000000000000000000000000000072
:802580000000000000000000000000000000000000000000000000D8FA00000000000000000000000000000000000000000000000000000000000000000000000000000000000000000000000000000000000000000000000000000000000000000000000000000098FF000000000000000000000000000000000000000000000000000072
:802600001000000000000000000000000000000000000000000000000000000000000000000000000000000000000000000000000098FE00000000000000000000000000000000000000000000000000020000000000000000000000000000000000000000000000000000000000000000000000000000000000000000000000000098FD1D
:80268000020000000000000000000000000000000000000001000000000000000000000000000000000000000000000000000000000000000000000000000000000000000000000000000000000000A8FD000000000000000000000010000000040400000000000000000040000000000000000000000000000000000000000000000000DA
:80270000000000000000000000000000000000000000000000000000D8FA00008000000000000000000000000040000010000000000000010001000000000000000000000000000000000000000000000000000000000000000000000000000000000000000000000014FB00000000000000000000000000000000000000000000000000A6
:80278000000000000000000000000000000000000000000000000000000000000000000000000000000000000000000000000000000098FF00000000000000000000000000000000000000000000000000000000000000000000000000000000000000000000000000000000000000000000000000000000000000000000000000000098AA
:80280000FF0000008000000002000008000120100591001000824400680000000004000000000000000000000000000000000000040000000002400000000D20000080001000004003080001A0010000A8FC000000000000000000006000000000000000000000000060000000000000000000000000000000000000000000000000000072
:80288000000000000000000C000000000000000000000000008001000028FA00000000000000000000004000080000000000001E0000004000000000000000000000000000000000000000000000002000000000008300000C0000000000024000C0800020008001000078FA0000000016080040080060044C8020100426C24400111361C4
:802900000400000000000000000000000000000000000000000000300000000000002000000C8045000046C00800000060040080010000B8FD0000000010000000010060008000040104200808080520612400000000020000000000000000000000000000000000000200000018088B000000023000004002480000130201800248000063
:8029800020FA0000008007040006080018200FE8001C8007F08014C00318000000000C0800000000000000000000000000000000003C200000001EC003000003E001008007F0000080007840036000000048FB0000000006000018080060200C0001200006C0001804036020000000300000000000000000000000000000000000003000D1
:802A00000000001800030000008081000006C00000000360000C00000000F8FB0000000026010000000070044C8208924026C1245800931004000000B008000000000000000000000000000000000030090000001800130100008001000026C12400000062124C10000000E8F900000080000000024000482201200925920010000240000C
:802A8000080000200004000000000000000000000000000000000000040000D01800400000000120040080001000000000080001A00100002CF8000000000000000000000000008001100000000000100060000000000000000000000000000C000000000000000600000000C0000000000000000040000000000000000000000080010067
:802B00000078FA0000000000000000040060000008812010000000001000002000600000000000000000000008000000000000000400002000C0400000000000030080000000024000000000200000800000F0FB0000000016080098000040444C8004300226C2444000130104002000004100000000000000000000000000000000003069
:802B80000000C0000000080100000000000046C008000000600420840100005BFB0000000020000080200B6042408089A000100004001110604200800931100000000000000000000000000000000000801000C08000002301002C0000010010020400000000028C8449000011FF000000800702001EC00379000FE4003C9007F44006C063
:802C0000037A0000E0010C0000000000000000000000000000000000003C0000B00000C00000000FE400008007F08000000078200360000000F0FA0000000006000018000360000C8001310006C000101003601000800100000000000000000000000000000000000000300000800000000000000C8000000006C000000000600000800173
:802C80000100DBFF0000000006010018040360800CC201384006C120000183600200800100100000000000000000000000000000000000300800008000000001000C8021000006C12000000060100044000000C8FB1000048000000002000068008120112591401008024000680000200004110000000000000000000000000000000000ED
:802D000004020000000040000000002000008040102400400008000120000000B8FC00000000000000000000600000020000000001200000006000000000000000000000000000000000000000000000000008000000000000000000000000000001000000000000008001000048FE0000000000040000040000000884813000048240001E
:802D8000000002400060000000000000000000000000000000000000000020000000000000800000000000010004800000000000200002000100A0F90C00000026000098000000000800012012248000802013600400000000210000000000000000000000000000000000A0100000000000030000008005000014820001005360018C0060
:802E0000000000A0FA0400300210000040000060102484093112424042000120610000800180200000000000000000000000000000000000100600000000000001000000800000C2401000001000010084910000C8FC00003CA00704001E1000780007E0013C8003740006C803182000E0010D000000000000000000000000000000000035
:802E8000001C0000000000C003000000E001008003700000C00379400FE0010000F0FF0C0030000600001800006040008001301000000018080360200080010020000000000000000000000000000000000000000000000000030000008001000000000000000360000C8081000098F8000030001601005804007004408205B2002001246C
:802F000080008B100400800110020000000000000000000000000000000000000900000000008B0000008045000020012800008B60112C82110000A8FE000000800000004200000800092000348004900002400008000020000400000000000000000000000000000000000024000000000040000800002004008004100000400308000183
:802F80002000000090FC0000000000000000040000000C0200300006C1200000006000000000000000000000000000000000000000000000003008000000000000000000004000000601000000000000000000000048FA000000000004001008000020000400000000004000040002200060000000000000000000000000000000000000D5
:80300000000000000000000000800000000080000000004000C08000200C6200000040F80C0000002600009000006004240000000002440298001300040000003009000000000000000000000000000000000010040000000000030000000000000082C0020000106001000000000068FC0400000020000008010060428884893000048246
:8030800048000910604200803100120000000000000000000000000000000000A0000000000000086021000000010014004800001300020C8205000068FE000000800702000E1000780003E0013C880130001EC0037A0000E0013C0000000000000000000000000000000000000C1000000000C0037A0000E000008001F2000080007A2040
:803100000FE0810000D8FD0C0000000600000000006040088001301004800018000360100080013000000000000000000000000000000000000020000000000000036000008000000004C00000000362000C8001000090FF00000000460100000400600100820138000001201805A36001008001300A000000000000000000000000000023
:8031800000000000080000000000A36000008021000000C12800000060148C8401000098F900000080201000120100080001200004800010000240100800002000040000000000000000000000000000000000000400000000004010000000200400800010000040004800012000000084FA000000000011001804006000008001000000E9
:80320000000000008000000000000000000000000000000000000000000000000000000000000000800000000040000000000000000060100000000000B0FB000000000430000000000020000080001006000000000218000060000000000000000000000000000000000000000000000000000000020100000080000000004000000000CC
:8032800000006000000008FF0C0000002402000810006002008009300210010058100A0100000000B020000000000000000000000000000000000000000000000000220000000000000000C0020000532020002000000013FB0400000012C02010080060000080053012260004980061608400800531000000000000000000000000000015
:803300000000000000420000000000110000000000010000040400000841088080010100E9FA1800008003E200060000784003E4813C8007318006D001780000E0010C1000000000000000000000000000000000000C0000000000C001020000E000008001F08000C003180003E2010000B0F80800000000C00010000060000C8201302038
:8033800006C02018040060000080013008000000000000000000000000000000000030000000000000000000008000000006C02000008340000C84010000A3FB0000000010C10040040010202C4008310186C000000188600000800100020000000000000000000000000000000000B0080000000000880000008021000016C108000023AA
:8034000000102C80010000A0FC000000801400000200004804012001048000D000024002080081A00104000000000000000000000000000000002000040000000000400A000001200400800090040040004801012000340008FF000000000601000000000020000000010000C00000008300000484010000000000000000000000000000A9
:80348000000000000000000000000000830000000040000000C02000000060100000003000F8FC000000000000000000006000008001000006C10000040018000084010000000000000000000000000000000000000030000000000000000000030080000006040000000000000062000010F0FF0C0000001202000000004012000041007B
:803500000000C00098004108000080013009000000000000000000000000000000000000400000000000210200000000000020401400005320208C0000300062FA040000000400008000006020808881B00026014880000A600C20081000010000000000000000000000000000008009310000000000001201000C0400010016840801000E
:80358000204108208005300610F918000080010200060400780003E0013C900730001EC80079000360403C10000000000000000000000000000000E0013C1000000000C00000000FE000008007300000C00318000FE8010D0008FA0800000004000018100060000C8041300006000018040260000004003008000000000000000000000066
:80360000000000008001300000000000000200000C8000000006802000008340000C8201301061F80000000040010018000060112C820130002604005800806000800000B0000000000000000000000000000000008001300A0000000000A000000C8021000046010800000B00142C8001080218FE0000008004D000020000080001A001FC
:8036800004800010001A400A080001A001040900000000000000000000000000000000000480060000004000000001200400800090001A400008022102000400A4FF000000000601000000000000008001300000000000008300000080010000000000000000000000000000000000000000000600000000000000000040000000C02018F4
:8037000000000010000000300070F90000000000C00018000000000C0000001000000004000018000000803C0000000000000000000000000000000000000000060000000000000003008000000600000008004100080400001020F90C00000012C282000500000040040030010000000205410000208401001100000000000000000000ED
:8037800000000000000000000006000000000000000000000000004214180023400A88000000025BFD0400000004004898040060008C8101304010000298080A6004008811100800000000000000000000000000000000000004C0000000002000008C010001002680081901082104440000301251F8180000800132001E000078200FE0C5
:80380000413C8001314004C0007920036040280000000000000000000000000000000000000C8001000000C08000000FE000008007320006D00338200708003C0080FD0800000004C02018000060000C8201310006C0001A000260000C848130080000000000000000000000000000000000300800000000000300000C8000000006810046
:8038800018088300000000003000DBFB0000000000010018200060004CC011081016C2220010A06000404010B0000000000000000000000000000000000000300200000000000B04000C8021000016002004010300112002003005F0FF2000008040D00002000008220120002482061000024020080001200034000000000000000000000C
:8039000000000000000000000400000000004000000001A00104800010080240000804292000000030FB0000000000C1000000000000000000001006000000008000000080010000000000000000000000000000000000000000000000000000000000008001000000002018000000100C02000000E0FC0000000004E00000000000000C88
:803980000800310006C0000000021800000080080000000000000000000000000000000000003000000000000000000003800100000080000008004000006000000078F90000000024D2000000002041008001200806004200000A0900000010040A000000000000001000000000000000080000050000000000000000018001300500800C
:803A00000001010B420A8408000000E0FA8005010012C00000000000244C8809311040C040400061604480829130010200000000000000010000000000000000304100000000009000002C040881004040101809082104488409000098FFE001008003E20006040038000FE0013C8001F40006C401780003E0010820040000000000001011
:803A80000200000000000008003C0000000000C00000000F60003CA00172001EC003382003E0810000A8F98001000000C00018100040000C8001300000C00018000060000C820134A00400000000000050020000000000000800300800000000000300000C0000300806010018008300000882010000D8FA8001000020D100180100200834
:803B00008C8201320A00C02818049060002C808100000400000000000000020000000000000000B00000000000005300000C000030014600241811130012208001000068FB0000000000004200000000000000000000000000001000000000000000200400000000000000020000000000000000000000000000000000000000000000005F
:803B8000000000000000000000000000CCFF20000480000000024000080001200004800010000240000800012000040000000000000000000000000000000020000480001000024000080001200004800010000240000800012000040098FE00000000000040000000000000000000000000000000000000000000000000000000000000F0
:803C00000000000000000000000000000000000000000000000000000000000000000000000000000000D8FF2C000480001004024000080001200004800010000040000800012000000000000000000000000000000000000020000480001000024000080001200004800010000240000800012000040083F8040000000000280000000078
:803C800000000000000000000040000000000000008000000000000000000000000000000000000000000000000000000000000000000000000000000002000000000000C9FE38000480001000024000080001200004800010000050000000010000002000000000000000000000000000000020000480001000024000080000200004805D
:803D00000010000200000800010000040060F8080000000000400000000000000000000000000000000000400000000000000000000000000000000000000000000000000000000000000000000800000000000000000000000000800000ABFC200004800010040240000800012000048000100042600008020120108540000000000000BC
:803D800000000000000000000020000480001000024000080081200004800010000200100A00012004040070FD00000000000000000000000000000002000000000400000000020000080000000000000000000000000000000000000000000000000000000000000000000400000000000000000000000030FF0000000000000004000097
:803E0000000000000000000000000000000000000000000000000000000000000000000000000000000000000000008000000000000000000000000000000000020000000010F900000000000000000000000000000000000000000000000000000000000000000000000000000000000000000000000000000000000000000000000000B7
:803E80000000000000000000000000040000D8FB00000000000000000000000000000000000000000000000000000000000000000000000000000000000000000000000000000000000000000000000000000000000000000000000000000098FF000000000000000000000000000000000000000000000000000020000000000000000034
:803F00000000000000000000000000000000000000000000000000000000000000000000000000000000000098FD000000000000000000000000000000000000000000000000000000204000000000000000000000000000000000000000000000000000000000000000000000008000000000000000000000F0FB080010000000000000C9
:803F8000000000000000000001020004080000000000000000000000000000000000000000000000000000000000000004000000008000000001400000000000000000000000F0FC00000000000000000000000000080000000000000000020000008040000000000000000000000000000000000000000000000000000080000000004077
:80400000000800000000008000100000000000C8F90600080000000000000000000008000000010200044C00201000A000010000000000000000000000000000000000000000000000000800020040410001200120000800000240000028000058FA0001000000000000008200080020201008824100000400000000A0C802040000000004
:804080000000000000000000000000000000000000800000006000049581220504800040020200020800210000E0FF02000000000000000080000000000008200484000008000000008040000000000000000000000000000000000000000000000000000000200008000100000000000000000000000000000068F92A000000000000001F
:80410000000200400000000100000200000000000000000000100000000000000000000000000000000000000000000000000040000082002020048000001001000004804000801CFC0000000000400000080000000000000000000200000000000000000000000000000000000000000000000000000000000000000000000000000000AD
:804180000000000000000008000000000001000020F8000000000000000000000000000000000000000000000000000000000000000000000000000000000000000000000000400000000000000000000000040000000000400000000000000000D8FB00000000000000000000000000000000000000000000000000000000000000000047
:8042000000000000000000000000000000000000000000000000000000000000000000000000000000000800000018FF100000000000000000008000008000010000000000000000000000000000000000000000000000000000000000000000000000000000000000000000000000000000000000000000000000DCFA0000000000000038
:80428000000000000000000080000000000024000000000000004000000000000000000000000000000000000000000000000000000002000000000000000000000000000000000058FD00000000080000000000000000000000000000000000008000000000000000000000000000000000000000000000000000000000000000000000FB
:80430000000000000000000000000100000000000088FF000000000000000000000000000000000000000000000000010000200000000000000000000000000000000000000000000000000000000000040000000000000000000000000000000000E8FA1800000000000000000000400000000000000000000000000000008000000000D6
:804380000000000000000000000000000000000400000000000000000000000000000000000000000000000001000050FA002000000000000000000008040000000000400000000080000000000000000000000000000000000000000000000000000010000000000000000020000000000000000000000000000000B0FA000000000000A8
:80440000000000000000000000200000000000000000410000000000000000000000000000000000000000000000000000000000000000000000000000000000000000000000000000E8FE000000000000000000000000000000100000000000000000000000000000000000000000000000000000000000000000000000000000000000E5
:8044800001000000000000000000000000000000008010FE000000000000000000000000000000040000000000000000000000000000000000000000000000000000000000000000000000000000000000080000000000000000000000000000000000D0FB000000000020000000000800000000002000000000000000000000000000000E
:80450000000000000000000000000000000000000000000000000000000000000000000000000000000000000000000030FF000000000400000000001000000000000000000000000000000000000000000000000000000000000000000000000000000000000000000000000000000000000000008000000000000000C4FE0000000000B6
:804580000000000000000000000000000000000000000800000000000000000000000000000000000000000000000000000000000000200000000000000000000000000000000000000038FD00000000000020000000000000000000000002000000000000000000000000000000000000000000000000000000200000000000000000001C
:8046000000000000000000000000000000000000400000F8FF00000000040000000000000000200004000000001010000000000000202800000000000000000000000000000000000000000000000000000000000000000000000000024000000000000048FA000000000000001000002010000004100000000040800020000C800010001F
:80468000000000000000000000000000000000000000000000000040020000000000000000200008000000000800041080B8FD00000010000800200000000008000000000080002000800000200000400000000000000000000000000000000000001000000000000004000000000000000200200000010000100000000098FE0000000062
:80470000000100000000000800002008000800010002060008024000000400000000000000000000000000000000000000000000000000000000000000080000000400090010004000080030FB000000000000000000008000000000408000000000000000001000000000000000000000000000000000000000000000000000000400803D
:80478000000000000000000800000004000000008200000020FE00000000000000400002000000008000200000000008000000000000001000000000000000000000000000000000000000000000000000000000000000000010000000000000000000040048FE000000000000000000000000000000000000000000000000000000400079
:8048000000000000000000000000000000000000000000000000000000000000000000000000000000000000000000000000FAFD00000000000000000400000000000000000001000000000000000000800000000000000000000000000000000000002000000000000080000000002000000400000000000000000200000020FE200001B7
:80488000000201000800000000040000040400000000008000000000400000000000000000000000000000000000000000000000000080000000048040000002204000000020100002000000C8FF18000020000020004000000000020000000200200000412010040000081000000000100000000000000100004000001000000000080090
:8049000000000000000000080040000800000000000440008010FD40830020010280044000200002084508900000800040002B500180C01420000000000400000000000004000010000004000000000280000000064080A0200130400200501020000C00010038FA2000000086810018040240001A002520D082408010028348A82C800038
:804980002100000000080040000000000000020000004020000000484100010000059600880104C0300029002010004021000438F8000000000201000804000000000000000004400000008100000240000000000000020080000000000000080000004000000000000000010000044200000000204000000020100000000000C8F90000E4
:804A00000000812000040002100002402020000001000890001010040000080000000000000000000000000000000000001000000000000000000000000000000240200000000000008040000870F800000000000000000000000000040001400000404000000000000000800000000000000000000000000000000000000410000000003D
:804A80000000000000000000800000000000080000000000000050FE100000000020000010000000000000000000000004000000000000000800000000000000000000000000000000000000000000000000040000000000000001000000800000000000000000D4FC0000000010000000000010002040002800000000000208000000018C
:804B000000000400000000000000000000000000000000000000000040000000000000200000001040000000002000000000000008F800000000000000000000000000010000000400000800000000000000000000000000000000000000000000000000008000000000000001000000000000000000000000000000048000000048FB020A
:804B8000000000000000000000000000000000000000200008000000000000000000000000000000000000000000000000000000000000000000000000000000000000000000000000040000000090FB00000000000000000000002000000000000000000004000000000000000800000000000000000000000000000000000000002000B2
:804C0000000000000000400000000240000000002000000000000078FD000000000000000000000000008000000000000000000000000000000000000000000000000000000000000000000000000000020080000000004004000000000000000001000A00000000A0FB0200000000000000200000000040000000000800000000000000C7
:804C800000000000000000000000000000000000000000000000000000000000000000000000000000000000000000000000000000F0FB00000000000000000000001001000000000020000000000000000000000000000000000000000000000000000000000000000000000000040000000000008000000000800000000000000028FB71
:804D0000000000000000000002000000320000000000A0000000001000000000000000000000000000000000000000000000004020000000000000000000010000000000000000000000000000000028F9000000000000000400000000000020000001000000400000000000020000000000000000000000000000000000000000800000E6
:804D8000000000000000000000000000000000000080000000000400E0FF18000000000000000000000000000100000000000000000000000000000000000000000000000000000000000000000000000000000000000000000000000000000000400800000000000050FBA0013400000000004000000001000034000000000000900000CA
:804E0000000000000000000000000000000000000000000000000000001000000000000000000000000000000000000000000000000000FC800130000000000000000000000000300000000000000000000000000000000000000000000000000000000000000000000000000000000000000000000000000000000000000000000000281D
:804E8000FDE00138000000000000000000030000380000000000C0000000000000000000000000000000000000000000000000000000000000000000000000000000000000000000000000000000000030FEA001340000000000000B010001000034000000000000000000000000000000000000000000000000000000000000000000005D
:804F00000000000000000000000000000000000000000000000000000020FA0000000000000000000002000C0200000000000000000B020000000000000000000000000000000000000000000000000000C0020000000000000000000000000000000000000000000000D0FE60400C0800000000C00300000F00000C0800000000C003000D
:804F80000000000000000000000000000000000000000000000000000000F0800000000000000000000000000000000000000000000000B8FB0000000000000000000300000C00000000000000000003000000000000000000000000000000000000000000000000000000C0000000000000000000000000000000000000000000000000BC
:8050000068FF2000040000000000009300000D00000400000000000003000000000000000000000000000000000000000000000000000000C0000000000000000000000000000000000000000000000000C8FA200034000000000040120400000000340000000000400300000000000000000000000000000000000000000000000000005B
:805080000000000000000000000000000000000000000000000000000000F8F9000030000000000000010000000000300000000000000300000000000000000000000000000C0000000000000006000000000000000000000000000000000000000000000000000000000050FC0000380000000000000202000000003C0000000000C003C2
:805100000000000000000000000000000000080000000000000004000000000000000000000000000000000000000000000000000000000048FF80813400000000000003000000000034000000000040030000000000000000000000000000000000000000000000000000000000000000000000000000000000000000000000000000002D
:805180000063FA000400020000000000120200000000000200000000002000000000000000000000000000000000000000000000000000000000000000000000000000000000000000000000000000000000B9F8E0810C0800000000C00300000000000C080000000080800000000000000000000000000000000000000000000000000019
:8052000000000000000000000000000000000000000000000000000000000048FD8001000000000000000300000000000000000000000000000000000000000000000000000000000000000000000000000000000000000000000000000000000000000000000000000000001BFE8041000000000000805300000000000000000000004078
:805280000000000000000000000000000000000000000000000000000000000000000000000000000000000000000000000000000000000000F0F9A001040000000000402202000000000400000000000090000000000000000000000000000000000000000000000000000000000000000000000000000000000000000000000000000028
:80530000000020FF80010000000000000000000000000000000000000000000000000000000000000000000000000000000000000000000000000000000000000000000000000000000000000000000000000018FEE00100100000000000030000000000001000000000C000000000000000000000000000000000000000000000000000B3
:805380000000000000000000000000000000000000000000000000000000000088FCAC01300100000000000A040000000030010000000000000000000000000000000000000000000000000000000000000000000000000000000000000000000000000000000000000000000078FF040480000000000000130400000000002100000000D5
:8054000000430000000000000000000000000000000000000000000000000000000000000000000000000000000000000000000000000000000010FC78403C1000000000C00300000000003C0000000000C0030000000000000000000000000000000000000000000000000000000000000000000000000000000000000000000000000017
:8054800000000070F808003000000000000003000000000030000000000000030000000000000000000000000000000000000000000000000000000000000000000000000000000000000000000000000000000090FC0000B0080000000000430000000000B008000000000003000000000000000000000000000000000000000000000094
:80550000000000000000000000000000000000000000000000000000000000000050FC20000400000000004012040000001005000000000000900000000000000000000000000000000000000000000000000000000000000000000000000000000000000000000000000000000080F8000000000000000000010000000000000000000047
:805580000000000000000000000000000000000000000000000000000000000000000000000000000000000000000000000000000000000000000088FE000000000000000000020200006000001000000000C000000000000000000000000000000000000000000000000000000000000000000000000000000000000000000000000000F1
:805600000000000008F88C81000000000000000300000000003001000000000000000000000000000000000000000000000000000000000000000000000000000000000000000000000000000000000000000000007AFA0408B10000000000000A0000008011800000000000000B0000000000000000000000000000000000000000000092
:80568000000000000000000000000000000000000000000000000000000000000000F0F8F8013C2000000000C003020000E0813C1000000000C0030100000000000000000000000000000000000000000000000000000000000000000000000000000000000000000000000000000070F88801000000000000000300000080013000000092
:80570000000000030000000000000000000000000000000000000000000000000000000000000000000000000000000000000000000000000000000019FF805180080000000080130200008001300A000000000003000000000000000000000000000000000000000000000000000000000000000000000000000000000000000000000062
:805780000000000000C0FB20002541001000004022020001000024010000000040000000000000000000000000000000000000000000000000000000000000000000000000000000000000000000000000000000000088FD0000100000000000000000000000001008000000000000000000000000000000000000000000000000000000E1
:805800000000000000000000000000000000000000000000000000000000000000000000FE00012000000000000003010000000020000000000000000000000000000000000000000000000000000000000000000000000000000000000000000000000000000000000000000000000088FE0C10311200C0400000220000000000B0080026
:8058800000000000000000000000000000000000000000000000000000000000000000000000000000000000000000000000000000000000000000000023FE8401300000000200001304008C0800200200000000002300000000000000000000000000000000000000000000000000000000000000000000000000000000000000000000E0
:8059000000000000000009FAF8813C0800F04000C00300000F00003C1000000000C0830000000000000000000000000000000000000000000000000000000000000000000000000000000000000000000000000000000008FC8801300000C02000000300000C000030000000000000030000000000000000000000000000000000000000F7
:80598000000000000000000000000000000000000000000000000000000000000000000096FBC041181000C00800000302000C000038110000000000030000000000000000000000000000000000000000000000000000000000000000000000000000000000000000000000000000000058F9201124020010000040820000010000A400A9
:805A000000D00000009000000000000000000000000000000000000000000000000000800600000000000000000000000000000000000000000000000000D0FA004000100000000000010000000000000800C00000000000000000000000000000000000000000000000000000000000000600000000000000000000000000000000000057
:805A80000000000000000090FC808130000000000000020000020200301000E00000C0000000000000000000000000000000000000000000000000000000070000000000000000000000000000000000000000000000000010F90C11200A00C04000009300002D0000200200D00000000000000000000000000000000000000000000000FA
:805B000000000000000080060000000000000000000000000000000000000000000000000088FD84093041000080000022000000020030010000220000030200000000000000000000000000000000000000000000000000060000000000000000000000000000000000000000000000000030FCF8413C0000F00000C08300000F00003CFB
:805B80000800300000C0030000000000000000000000000000000000000000000000000000070000000000000000000000000000000000000000000000000028FE8801300000C02000000301000C0000300000000000000300000000000000000000000000000000000000000000000000000600000000000000000000000000000000009B
:805C00000000000000000000F0FA8021300800C00200800B00004D020030080010000000030000000000000000000000000000000000000000000000000080060000000000000000000000000000000000000000000000000018F8200924860690221A400268000D000024860610001A400068000D000034000000000000000000000000C5
:805C80000000000000003480060000004000000000000000800600000040030000000000000038FC8040100006400018008060000C0000100006C00018000060000C0000300000000000000000000000000000000000003000060000000000000000000000000600000000030000000000000080FD000120800780201C000370000F000067
:805D000020000700001E000078000C00003800000000000000000000000000000000000038000700000000000000000000000006000000000300000000000000F0FB8C41309206C0081A001269000D0000308506C0101A000060000C00003400000000000000000000000000000000000034800600000000000000000000000006000000EB
:805D80000003000000000000003BFB048130004081040005830014800200200240C1200005236100200000000A0000000000000000000000000000000000000A060000000000000000000000004000000000000100000000000071FDF8013C8801F04006C00318000300003C9001F00006C00370000304000C000000000000000000000042
:805E0000000000000000000C0007000000C0000000000000008001040000C00000000000000000C8F98801300000C0000000030000000000300000C040000003600000000000000000000000000000000000000000000000000006000000000000000000000000000000000000000000000000007EFBC049180500E0840200A30800000084
:805E80000038910000040000036000000000040000000000000000000000000000000000000400060000000000000000000000000000000000000000000000000070FE201124840690241A400068000D0000248406D0001A0090680000A0013400000000000000000000000000000000000034800000001A000000000DA001000000D000E3
:805F00001A000000000000003400D8FD0040000006000018000060000C0000000006C000180000600000800130000000000000000000000000000000000000300000000018000000000C8001000000C0001800000000000000300058FF8001300007C0801E000078000E0000309007F0001EC00070000080013C00000000000000000000B3
:805F800000000000000000003C0000000018000000000C8001000000C00018000000000000003000C8FD0C09A2A00680081A000B69000D0000208206D0001A0000680000800134000000000000000010000000000000000800340000000018000000000C8001000000C0001800000000000000300030FA8409300600C122000400011020C6
:806000000200300600012000040301100000300008020000000000000001000000000000000000084001000000000000000190000000000080000000000000000006B0FFF8413C8001F00006C00318000300003C8001300006C00310000060000C0004000000000000100200000000000008000C800100000608000000036000000000301D
:806080004006080000000000000C00F8FF8801300000C0000000830000000000300000000000000300000000000080040000000000005002000000000000080000000601000000000000000000000000000000000000000000000000B8FE8045308800C0880000130000010000300800000002000308000000000000040000000000000063
:806100000200000000000000000000160000000000000000000000000000000000000000000000000088FB000000000000000000000000000000000000000000000000000000000000040000000000000002000000000000000000000000000000000000000000000000000000000000000000000000F8FB0000000000100000400000003B
:8061800000200000000000000040000000012000000000000000000000000000000000000020000080001000024000080001200004800010000240000800012000040058FC00000000000400000800000000020000100000000004000120000000000000000000000000000000000000000000000000000000000000000000000000000069
:8062000000000000000000000000000038F82C440488401000024100082081200004828010140240000800012000041100000000000000000000000000000020000485001200024000080001200004800010000240000800012000040083FD0400000000000000000000000000000000000000000008012100000000000000000000000015
:80628000000000000000000000000000000200000000000000000000000000000000000000000000000041FB180000000010000040000000010000000000000000000000000120000000000000000000000000000000000000200000000010000240000800012000048000100002400008000120000400B0FF08000000000100000400007C
:80630000100000800000000120000080001000000000080000000000000000000000000000000000000800000000000000000000000000000000000000000000000000008EFB2008068A20100002400008004122000489001002825000080201200004000000000000000000000000000000002000040000120002400008000120000480E9
:8063800000100002400008000120000400E8FC00000000000000000000000000000000000000000000000000000000000000000000000000000000000000000000000000000000000000000000000000000000000000000000000000000098FF000000000000000000000000000000000000000000000000000000000000000000000000A3
:8064000000000000000000000000000000000000000000000000000000000000000000000000000000000098FF00002000000000000000000000000000000000000000000000000000000000000000000000000000000000000000000000000000000000000000000000000000000000000000000000000098FD00000000000000000000D0
:80648000000000000000000000000000000000000000000000000000000000000000000000000000000000000000000000000000000000000000010000000000000000000098FE00004000000000000000000000000000000020000000000000000000000000000000000000000000000000000000000000000000000000000000000000A5
:806500000000000000000000000000000000B8FB00000400800000000008000000000004000000000000000000000000000000000000000000000000000000000000000000000000000000000000000000000000000000000000000000000098FB0040000000000000000000000002000000000000000000000000202000000000000000C3
:806580000000000000000000000000000000000020000000000000000000000000000000000000000000008014FF80000000000000000000000000000010000000000000000000002000000000000000000000000000000000000000000000000000000000000000000000000100000000000000000000000018FD20800000000000000082
:806600000000000004006400C0000000005A000000608000000000000000000000000000000000000000000000004000000000000000000080000000000000C000000000000080FE80201800000000000000000000400010040000000000820500008041000000000000000000000000000000000000000000000000000000000000020064
:8066800000000000000000000000000000000068FD8A0010000000000000000000000000100000000000008000000020000100000000000000000000000000000000000000000000000000000000000800000000000000000000000000000000A0FF0A400000000000000000000000000000080000000000010000002000000000000000D0
:8067000000000000000000000000000000000000000000000000000000000000000000000000000000000000003CFE00000800000000000000000000000008000000000000000000000000000000000000000000000000000000000000000000000000000000000000000000000002000000000000000000000030FD0000000000000000A0
:8067800000020000000000000000000000000000000000000000000000000000000000000000000000000000000000000000000000000000000000000000000000000000000000B8FD0006000000000100000000000000000000000000000000000000000000000000000000000000000000000000000000000000000000000000000000DB
:806800000000000000000000000000000000000088F8100000000000000000000100000000000000000000080000000000000000000000000000000000000000000000000000000000000000000000000000000000000000000000000000000000C4FA000000000000000000000000000000000000000000000000000000000000000000C1
:8068800000000000000000000000000000000000000000000000000000000000000000000000000000000000000098FF000000000000000000000000000000000000000000000000000000000000000000000000000000000000000000000000000000002000000000000000000000000000000000000000000000B8FD000000000000002C
:80690000000000000000000000000000000000000000000000000000000000000000000000000000000000000000000000000000000000000000000000000000000000000000000098FF1000000000000000000000000000000000000000000000000000000000000000000000000000000000000000000000000000000000000000000070
:80698000000000000000000000000000000000000088FF00000000000000000000000000000000000000000000000000000000000000000000000000000000000000000000000000000000000000000000000000000000000000000000000000000098FF040000000000000000000000200000000000000000000000000000000000000055
:806A000000000000000000000000000000000000000000000000000000000000000000000000000000000000000000F8FB020000000000000000000100000000000000000000000000000000000000000000000000000000000000000000000000000000000000000000000000000000000000000000000000000000B8FC0000000000006C
:806A800000000000000000000000000000000000000000000000000000000000000000000000000000000000000000000000000000000000000000000000000000000000000000000098FF000000000000000000000000000000000000000000000000000000000000000000000000000000000000000000000000000000000000000000FF
:806B000000000000000000000000000000000000000098FF08000000000000000000000000000000000000000000000000000000000000000000000000000000000000000000000000000000000000000000000000000000000000000000000000000090FF00000400000000000000000000000004000010000000000000000000000000CF
:806B8000000000000000000000000000000000000000000000000000000000000000000000000000000000000000000088FB000000400000100000000400000000000000000000000000000000000000000000000000000000000000000000000000000000000000000000000000000000000000000000000000000000C8FB0000000000FB
:806C00000000000000000000000000000000000000000000000000000000000000000000000000000000000000000000000000000000000000000000000000000000000000000000000098FF000000000000000040000000000000000000000000000000000000000000000000000000000000000000000000000004000000000000000039
:806C800000000000000000000000000000000000000000D8FB04000000000000000000800000000040000000000000000000000000000000000000000000000000000000000000000000080000000000000000000000000000000000000000000000008090FB0A0000000000000000000000000000100000100000000000000000000000C0
:806D0000000000000000000000000000000000000000000000200000000000004000000000000000000000000000000000D0F9000000000000000000010000000000000000000000004000000000000000000000000000000000000000000000000000000000000000000000000000000000000000000000000000000000C8FA00000008DF
:806D80000000000000040000000004000000000000800010000800000000000000000000000000000000000000000000000000000000000000000000000000000000000000000000000000BAF80000000000000000000000000000000000000000000000000000200000000000000000000000000000000000000000000000000000000021
:806E0000000000000000000000001000000000000000040098F800000000000000000000000000000040000000000000000000000000400000000000000000000000000000000000000000000000000000000001000000000000000000000000000000000088FA8440100800000000020120000400001008000000080081000000000001C6
:806E800010000000000000000000000000000000000000800000000000000000000000000000000000000000000000000000D0F81E00000000000000000000000000000000004000000000000004000000000000000000000000000000000000000000000000000000000200000100000000000000000000000000000000803AFC40B30824
:806F00001600801A008800100002000008100010000480000100290080001000000000000000000000000000000000000000014000504000000001000000000000005000000000000000000028FB800000000241181800082201248040000004800010004240008021002000000000000000000000000000000000000008000000024400F5
:806F80000000000A210000000010884400000000008000080058FC400000008120000400001000024020000000000000000000000000000000000000000000000000000000000000000000000000000000000000000000000000000000000000000000010000B0FC00000000000020020000000000000000000240000800810800000200B3
:80700000100000000000000000000000000000000000000000000000000000000001080000000000000000000000000000000078FC00000000000000000000000000000000000000000000000000000000000000000000000000000000000000000000000000000000000000000000000000000000000000000000000000000098FF0002EA
:8070800000000000000000400000000000000000000000000000000000000000000000000000000000000000000000000000000000000000000000000000000000000000000000000000000000D8FD3000000000800200C00804000000020080000000008008000000000000000000000000000000000000000000000000000000000000F3
:807100000000000000000000000000000080000000000000000064F980200000008000080000000000400020040000000000020000000000000000000000000000000000000000000000000000000000000000000000000000000000000000000000000000000058FF0E00000000000000000000000000000000000000000000000000003F
:80718000000000000000000000000000000000000000000000000000000000000000000000000000000000000000000000000000F0F900000000000000000000000000000000000000000000000000000000000000000000000000000000000000000000000000000000000000000000000000000000000000000000000000000098FF000F
:807200004000000000000000000000000000000000000000000000000000000000000000000000000000000000000000000000000000000000000000000000000000000000000000000000000000D8FB00000000000000000000000000000000000000000000000000000000000000000000000000000000000000000000000000000000FB
:80728000000000000000000000000000000000000000000000000098FF400001000000200000000000000000000000000000000120000000000000000000000000000000000000000000000000000100000000000000000000000000000000000000000000000000E8FD00012000000040000081000000000000000000000040000000006D
:807300000000000000000000000000000000000000000000000000000000000000000000000000000000000000000000000000000008FD10000000000000000000000000000000000000000000000000000000000000000000000000000000000000000000000000000000000000000000000000000000000000000000000000000088FF71
:8073800000000000000000000000000000000000000000000000000000000000000000000000000000000000000000000000000000000000000000000000000000000000000000000000000000000098FF000000802018020040080800411000008000080002200000000020000000000000000000000000000000000000000000000000D1
:8074000000024000000000000004000090020140020800490000000090FF00000000000040000000010000000000800000000200000000008080000000000000000000000000000000000000000000000000000000000000000000000000000000000100000800000068FE0000000000000000000000000000000080050000160000000044
:807480000000800000000000000000000000000000000000000000000000000000000000000000000000F00000C00300000E0000000098FB000000000242400000010182040400000002000008000000000000000000000000000000000000000000000000000000000000005820430000000000000000400201001101008408000000D032
:80750000FB000000002002020000080008000000000005000014000000000000400000000000000000000000000000000000000000000000008000080000000000300A006000008001000C060000000070FF0000008003708000C0011A00070400000004000010000000000060000000000000000000000000000000000000000000000092
:8075800000001EC80302000000003C0000400000000118000400000000B0FB000000000480000000026040080000000005000014000000000000000000000000000000000000000000000000000000000000001800030000000000300000800000000260100800000000C8FC00000000024400010011010144080000000202000811000049
:8076000000000084000000000000000000000000000000000000000000000000980493000000000030000080000000026000080000000048FD000004800090480040220900010000008000080002600000000020400400000000000000000000000000000000000000000000000240000000000000000000904000400A0A00090200000071
:8076800010FF000000000040000000010020000000008000000002000000000000000000000000000000000C0000000000000006000000000000000000000000000000000000000000000000000000000048FA00000000008000000002004000000000800500001600000000000000000000000000000000080000000000000004000000DB
